:100000000C94E5000C94E3210C94BC210C949521F4
:100010000C946E210C940D010C940D010C9447214D
:100020000C940D010C940D010C940A220C9488225E
:100030000C940D010C940D010C940D010C940D0108
:100040000C940D010C940D010C940D010C940D01F8
:100050000C940D010C940D010C940D010C94FD20D9
:100060000C940D010C94E0240C94BA240C940D0112
:100070000C940D010C940D010C940D010C940D01C8
:100080000C940D010C940D010C940D010C940D01B8
:100090000C940D010C940D010C940D010C940D01A8
:1000A0000C940D010C940D010C940D010000000046
:1000B0002300260029002C002F00505249534D41A7
:1000C000204D52332E302053455249414C000706F3
:1000D00005040100080A0B0C0D09080B00020202BE
:1000E00000000904000001020200000524001001C4
:1000F0000524010101042402060524060001070568
:10010000810310004009040100020A0000000705F5
:1001100002024000000705830240000004030904B6
:1001200012010002EF020140412337800001010269
:10013000030141726475696E6F204C4C430041723B
:100140006475696E6F204D6963726F000000000076
:10015000240027002A002D003000000000020009C2
:100160000F0000030401000C00000000000000006C
:1001700000000000000000000004080201104080A0
:10018000401020408040800802040180402010027E
:1001900001108010204040200000000025002800B1
:1001A0002B002E00310004040404040304050202A1
:1001B0000202040302020202060606060606040400
:1001C000020202040400E6268A2E11241FBECFEF8D
:1001D000DAE0DEBFCDBF14E0A0E0B1E0EAE6F1E690
:1001E00002C005900D92A837B107D9F72AE0A8E719
:1001F000B4E001C01D92A23AB207E1F710E0C4EEEC
:10020000D0E004C02197FE010E94682FC33ED107B1
:10021000C9F70E94382A0C94A8300C940000CF93A0
:10022000DF931F92CDB7DEB76983DC01ED91FC91BE
:100230000280F381E02D41E050E0BE016F5F7F4F0F
:1002400009950F90DF91CF91089581508F3008F07C
:1002500047C0E82FF0E0E15DFE4F0C94682F4C01A1
:1002600050013E01440148017001700170015301C9
:1002700059015D016101670170016B01809180008E
:100280008F77809380000895809180008F7DF9CFD3
:1002900080918000877FF5CF84B58F7784BD0895E6
:1002A00084B58F7DFBCF809190008F7780939000F5
:1002B0000895809190008F7DF9CF80919000877F85
:1002C000F5CF8091C0008F778093C0000895809112
:1002D000C0008F7DF9CF8091C200877F8093C200DC
:1002E00008951F93CF93DF93282F30E0F901E65A4A
:1002F000FE4F8491F901E758FE4FD491F901EA5578
:10030000FE4FC491CC23A9F0162F81110E94250124
:10031000EC2FF0E0EE0FFF1FE856FE4FA591B491D1
:100320008FB7F894EC91111108C0D095DE23DC93BF
:100330008FBFDF91CF911F910895DE2BF8CFCF9320
:10034000DF9390E0FC01E758FE4F24918A559E4FC1
:10035000FC0184918823C9F090E0880F991FFC016B
:10036000E45BFE4FA591B491FC01E856FE4FC591A8
:10037000D49161110DC09FB7F8948C912095822380
:100380008C938881282328839FBFDF91CF91089584
:10039000623051F49FB7F8943C91822F809583236B
:1003A0008C93E8812E2BEFCF8FB7F894EC912E2B06
:1003B0002C938FBFEACF3FB7F894809109069091B4
:1003C0000A06A0910B06B0910C0626B5A89B05C0A5
:1003D0002F3F19F00196A11DB11D3FBFBA2FA92FC4
:1003E000982F8827BC01CD01620F711D811D911DC1
:1003F00042E0660F771F881F991F4A95D1F708952D
:100400008F929F92AF92BF92CF92DF92EF92FF9224
:100410004B015C010E94DB016B017C010E94DB014E
:100420006C197D098E099F09683E7340810591050D
:10043000A8F321E0821A9108A108B10888EEC80E3D
:1004400083E0D81EE11CF11C81149104A104B104C5
:1004500029F7FF90EF90DF90CF90BF90AF909F90E3
:100460008F9008952FB7F894609105067091060655
:1004700080910706909108062FBF089508958093F4
:10048000E9008091F200882319F08AE38093E80064
:100490000895809160068F5F0C943F0283E00C9476
:1004A0003F024091D2055091D3052091D005309163
:1004B000D10542175307B4F49091E8009570E1F329
:1004C0009091E80092FD19C08093F1008091D205CF
:1004D0009091D30501968F739927892B19F48EEF8C
:1004E0008093E8008091D2059091D3050196909376
:1004F000D3058093D20581E0089580E00895DF92CE
:10050000EF92FF920F931F93CF93DF93D82E8A0120
:10051000EB017B01E40EF51ECE15DF0559F0D7FE89
:1005200012C0FE0184910E94510221968111F4CFE4
:100530000FEF1FEFC801DF91CF911F910F91FF9037
:10054000EF90DF9008958881EECF2FB7F8948770F1
:100550008093E9009091E800892F807295FF04C094
:100560009091F20080E4891B2FBF089583E00E94E0
:10057000A50290E008957F928F929F92AF92BF92D2
:10058000CF92DF92EF92FF920F931F93CF93DF935F
:10059000C82E8B017A018091D905811110C08FEF8F
:1005A0009FEFDF91CF911F910F91FF90EF90DF9020
:1005B000CF90BF90AF909F908F907F900895809143
:1005C000D70580FF05C08091E00082608093E00045
:1005D000CE2DDF2DD12C8AEFB82E8C2D8770982E42
:1005E0008C2D8072882E8C2D8074782E9AE3A92E03
:1005F000209719F4DD2009F452C08C2D0E94A50229
:1006000081110AC0BA94BB2051F261E070E080E031
:1006100090E00E940002ECCF8C171D0611F00CF048
:100620008C2F9FB7F8949092E9002091E80025FD67
:1006300002C09FBFDDCF282F30E0C21BD30B882024
:1006400029F08150A0F01092F100FBCFF801C7FC17
:100650000AC0815050F041914093F100FACF44918B
:100660004093F10031968150D0F7020F131FDD2027
:1006700021F0A092E800D12CDCCF8091E80085FD2C
:1006800007C0A092E800DD24D394209791F2F3CF25
:10069000209779F6772069F2A092E800CACF5D9A98
:1006A00084E68093D605C7017CCFCF93DF93EC011E
:1006B00080911C01882331F083E00E94BB02181650
:1006C000190634F081E090E09B838A8380E090E01B
:1006D000DF91CF9108959091D905992319F13FB7F2
:1006E000F89487708093E9008091F20090E04817B9
:1006F00059070CF4CA01282FFB0154E6215038F0A9
:10070000289A5093D5054091F1004193F7CF009777
:1007100039F02091F200211103C02BE62093E8006C
:100720003FBF08958FEF9FEF08950F931F93CF93CF
:10073000DF931F92CDB7DEB78C01FC0184859585D0
:1007400097FF0FC041E050E0BE016F5F7F4F82E036
:100750000E946B03019771F4898190E0F8019587FD
:100760008487F801848595850F90DF91CF911F9143
:100770000F9108958FEF9FEFF1CFCF93DF931F92EB
:10078000CDB7DEB7FC018485958597FD08C02FEFB6
:100790003FEF358724870F90DF91CF91089541E097
:1007A00050E0BE016F5F7F4F82E00E946B030197B4
:1007B00019F4898190E0EFCF8FEF9FEFECCF9FB7D7
:1007C000F89487708093E9008091F2009FBF0895AC
:1007D000FC018485958597FD06C082E00E94DF03B9
:1007E00090E00196089582E00E94DF0390E0089572
:1007F000615030F02091F100FC0120830196F8CF88
:10080000289A84E68093D5050895AF92BF92CF923F
:10081000DF92EF92FF920F931F93CF93DF936C01C0
:100820007B018B01040F151FEB015E01AE18BF08A1
:10083000C017D10759F06991D601ED91FC91019053
:10084000F081E02DC6010995892B79F7C501DF916B
:10085000CF911F910F91FF90EF90DF90CF90BF90BD
:10086000AF9008958091C80581110DC082E08093FA
:10087000C40584E08093C5051092C7051092C60593
:1008800081E08093C80584EC95E008950F931F9351
:10089000CF93DF931F92CDB7DEB782E0898342E426
:1008A00050E06AED70E080E80E947F020E9432040E
:1008B000DC0112960D911C910115110589F0D801EA
:1008C000ED91FC910280F381E02DBE016F5F7F4FBF
:1008D000C801099597FD04C0F80100851185ECCF8A
:1008E00089810F90DF91CF911F910F910895FC01A5
:1008F000538D448D252F30E0842F90E0821B930B85
:10090000541710F0CF96089501970895FC01918D2A
:10091000828D981761F0A28DAE0FBF2FB11D5D962D
:100920008C91928D9F5F9F73928F90E008958FEFCF
:100930009FEF0895FC01918D828D981731F0828D83
:10094000E80FF11D858D90E008958FEF9FEF0895DA
:10095000FC01918D228D892F90E0805C9F4F821B3E
:1009600091098F739927089581E697E00E94A80462
:1009700021E0892B09F420E0822F089580E090E0A7
:10098000892B29F00E94B40481110C940000089571
:10099000FC01A48DA80FB92FB11DA35ABF4F2C91F4
:1009A000848D90E001968F739927848FA689B789EB
:1009B0002C93A089B1898C9182748C93938D848DB2
:1009C000981306C00288F389E02D80818F7D808393
:1009D0000895EF92FF920F931F93CF93DF93EC0153
:1009E00081E0888F9B8D8C8D981319C0E889F989D7
:1009F000808185FF14C09FB7F894EE89FF896083DA
:100A0000E889F9898081827480839FBF81E090E0CA
:100A1000DF91CF911F910F91FF90EF900895F62EE7
:100A20000B8D10E00F5F1F4F0F731127E02E8C8D81
:100A30008E110CC00FB607FCFACFE889F9898081C6
:100A400085FFF5CFCE010E94C804F1CFEB8DEC0FEE
:100A5000FD2FF11DE35AFF4FF0829FB7F8940B8FE3
:100A6000EA89FB8980818062CFCFCF93DF93EC014D
:100A7000888D8823B9F0AA89BB89E889F9898C9186
:100A800085FD03C0808186FD0DC00FB607FCF7CF42
:100A90008C9185FFF2CF808185FFEDCFCE010E9442
:100AA000C804E9CFDF91CF91089590E080E00895E8
:100AB00080E008950F931F93CF93DF93CDB7DEB7F8
:100AC000C456D1090FB6F894DEBF0FBECDBFFC01EE
:100AD000DB019C919E5F9C939E01295F3F4F8AE5BD
:100AE000D9011D928A95E9F788E089838BE08A8392
:100AF00022E02C8391E09D839E8339E0398764E076
:100B00006A879E879F873A8B44E24B8B9C8BA0E041
:100B1000B1E0BE8BAD8B09E010E0188F0F8B998F81
:100B20003B8F6C8F2F8F98A353E059A387E08CA342
:100B30004DA39EA3B8A7AFA3A1E4B0E0BAA7A9A70D
:100B400086E08BA74CA72DA79EA79FA789AB4AAB92
:100B50002BAB2CAB2DAB3FAB48AF59AF9AAF5BAFD4
:100B60009CAF2DAF9EAF21963FAF219722964FAFFE
:100B7000229723965FAF239724962FAF249725962D
:100B80006FAF259726969FAF269727969FAF2797FB
:100B900028969FAF28972A963FAF2A9745E02B9635
:100BA0004FAF2B972D962FAF2D9760E470E02F96C7
:100BB0007FAF6EAF2F9763964FAF639785E26496D2
:100BC0008FAF649765969FAF659766969FAF669760
:100BD00067969FAF679768963FAF689769964FAFE4
:100BE00069976B962FAF6B976D967FAF6EAF6D97D2
:100BF000A1964FAFA197A2968FAFA297A3969FAF52
:100C0000A397A4969FAFA497A5965FAFA59792814F
:100C10009B839B879F5F9A8F9D8F83812C968FAF3D
:100C20002C978F5F80686A968FAF6A9744E650E092
:100C3000BE016F5F7F4F80E00E947F02CC59DF4F83
:100C40000FB6F894DEBF0FBECDBFDF91CF911F91DD
:100C50000F9108950F931F93CF93DF93FC01EC0145
:100C6000C557DF4F8881803F69F5673F21F0DF017D
:100C7000A357BF4F6C938F010A571F4FD8018D9117
:100C80009C918038910548F0E357FF4F608384E0E2
:100C9000DF91CF911F910F9108959F01280F391F68
:100CA00047EFD90116964C930196D8018D939C93EA
:100CB000DF01A857BF4F1C921882E457FF4F1082E4
:100CC00082E0E6CF663F79F4608311821282DF0111
:100CD000A757BF4F8C91882319F0E457FF4F10821C
:100CE000188285E0D5CF603F89F4DF01A857BF4F58
:100CF00081E08C936683129781E090E08D939C93C2
:100D0000E457FF4F1082688380E0C2CF673FE1F372
:100D10006883E657FF4F1082F7CFDC0152968D9122
:100D20009C91DC01ED91FC910190F081E02D099402
:100D3000CF93DF9300D000D01F92CDB7DEB72983C9
:100D40003A834B835C836D83DC0152968D919C9139
:100D50004B815C8169817A81DC01ED91FC9102809B
:100D6000F381E02D0F900F900F900F900F90DF9177
:100D7000CF910994FF920F931F93CF93DF938C0130
:100D8000C42FF52ED62FDC0152968D919C91DC015B
:100D9000ED91FC910190F081E02D642F0995F8010F
:100DA00082899389DC01ED91FC910190F081E02D25
:100DB0006F2D0995C07FC13B10F0C03E81F4F80152
:100DC00082899389DC01ED91FC910190F081E02D05
:100DD0006D2FDF91CF911F910F91FF900994DF91BB
:100DE000CF911F910F91FF9008950F931F93CF9371
:100DF000DF93EC018B018E819F81009711F00E949F
:100E0000F506E881F981008CF18DE02DB801CE0165
:100E1000DF91CF911F910F910994CF92DF92EF92C2
:100E2000FF92CF93DF93EC016A017B018E819F815A
:100E3000009711F00E940D07E881F9810688F78973
:100E4000E02DB701A601CE01DF91CF91FF90EF9089
:100E5000DF90CF9009940F931F93CF93DF9300D02F
:100E600000D01F92CDB7DEB78C0129833A834B8324
:100E70005C836D83DC0116968D919C91009711F037
:100E80000E942B07D801ED91FC910488F589E02D93
:100E900029813A814B815C816D81C8010F900F904F
:100EA0000F900F900F90DF91CF911F910F910994A8
:100EB000CF92DF92EF92FF92CF93DF93EC016A0122
:100EC0007B018E819F81009711F00E945807E88175
:100ED000F9810288F389E02DB701A601CE01DF91E7
:100EE000CF91FF90EF90DF90CF900994DC011296A4
:100EF000ED91FC91309739F084859585009729F420
:100F000086859785089590E080E008950E94760791
:100F1000009751F08F3F980751F0DC01ED91FC9163
:100F20000480F581E02D099488E594E008958FE52B
:100F300094E00895FC01A281B381109749F0ED91EE
:100F4000FC9111970684F785E02DAC01CD01099441
:100F50000895FC01A281B381109749F0ED91FC91B5
:100F600011970484F585E02DAC01CD010994089515
:100F70000F931F93CF93DF93EC018B018E819F81A1
:100F8000009711F00E94F50688899989009769F009
:100F9000DC01ED91FC910680F781E02DA801BE01F6
:100FA000DF91CF911F910F910994DF91CF911F9104
:100FB0000F910895CF93DF93DB011496ED91FC918F
:100FC0001597309701F12481358112964D915C91EE
:100FD000139721153105D1F0E9017B836A8353838F
:100FE0004283B583A4831396FC93EE9312971596D0
:100FF0003C932E9314974115510561F0DA01159633
:10100000FC93EE931497DF91CF910895EC017983CF
:101010006883E5CFEC01FB83EA83F5CFDC015696CC
:10102000ED91FC91309711F0CB0109940895DC010A
:101030005496ED91FC91309719F0CB01BA010994C7
:1010400008950F931F93CF93DF93CDB7DEB72A9701
:101050000FB6F894DEBF0FBECDBF2E833F83488707
:1010600059876A87DC015296ED91FC91309771F5B2
:1010700085E0FE013696DE01119601900D928A956B
:10108000E1F70091DC051091DD050115110531F145
:10109000D801ED91FC910284F385E02D29813A81FC
:1010A0004B815C816D81C8010995882311F1B801DC
:1010B0008CED95E02A960FB6F894DEBF0FBECDBF3B
:1010C000DF91CF911F910F910C94DA074E815F81D0
:1010D000688579858A850995882351F22A960FB605
:1010E000F894DEBF0FBECDBFDF91CF911F910F915E
:1010F0000895F80102811381C8CFEF92FF920F93F8
:101100001F93CF93DF93D42FC52F162F072FDC010A
:101110005096ED91FC913097C1F48D2F807F803BEC
:1011200009F04AC0C93781F5C091EC05D091ED05B1
:101130002097C9F0E881F9810680F781E02DCE0182
:1011400009950A80DB81C02DF3CF642F752F812F85
:10115000902F0995882309F3DF91CF911F910F916B
:10116000FF90EF900895C091E405D091E505209798
:1011700099F3E881F9810680F781E02DCE01099588
:101180000A80DB81C02DF3CFE090EC05F090ED05F7
:10119000CB3709F091C0C091F405D091F5052097A7
:1011A000D9F2E881F9810680F781E02DCE01099519
:1011B0000A80DB81C02DF3CF813B60F5803949F097
:1011C000E090F005F090F105803A09F455C08038C0
:1011D00019F6E090F405F090F505E114F10409F436
:1011E000BBCFD701ED91FC910284F385E02D4D2F0B
:1011F0005C2F612F702FC70109958823B1F1B701CA
:1012000084EF95E0DF91CF911F910F91FF90EF90C8
:101210000C94DA07803D09F470C0803E09F492C056
:10122000803C09F099CFE090E805F090E905E114E1
:10123000F10409F491CFD701ED91FC910284F3857B
:10124000E02D4D2F5C2F612F702FC701099588234A
:1012500009F44FC0B70188EE95E0DF91CF911F915F
:101260000F91FF90EF900C94DA07F701E280F38082
:10127000B4CFF701E280F380E114F10409F46CCFFC
:10128000D701ED91FC910284F385E02D4D2F5C2F69
:10129000612F702FC7010995882359F3B70180EF9B
:1012A00095E0DF91CF911F910F91FF90EF900C94FB
:1012B000DA07F701E280F380E114F10409F44CCF7E
:1012C000D701ED91FC910284F385E02D4D2F5C2F29
:1012D000612F702FC7010995882359F3B7018CEE50
:1012E00095E0DF91CF911F910F91FF90EF900C94BB
:1012F000DA07F701E280F3809ACFE090E405F090FE
:10130000E505E114F10409F427CFD701ED91FC9133
:101310000284F385E02D4D2F5C2F612F702FC701C4
:101320000995882359F0B70184EE95E0DF91CF91BC
:101330001F910F91FF90EF900C94DA07F701E28074
:10134000F380DFCFE090E005F090E105E114F104D7
:1013500009F402CFD701ED91FC910284F385E02DD1
:101360004D2F5C2F612F702FC7010995882359F0ED
:10137000B70180EE95E0DF91CF911F910F91FF9023
:10138000EF900C94DA07F701E280F380DFCFE09171
:10139000F805F091F905309781F0208531858217A5
:1013A000930748F0228533858217930730F0028037
:1013B000F381E02DF0CFF0E0E0E0CF010895EF926F
:1013C000FF920F931F93CF93DF93EC018B017A0170
:1013D0008C859D85009729F06817790711F00E9488
:1013E00045251D861C868E819F81009781F02A8568
:1013F0003B852E153F0559F4DC01ED91FC910684E7
:10140000F785E02DAE014C5F5F4FB80109958885E7
:101410009985009759F0DC01ED91FC910684F785E0
:10142000E02DAE014C5F5F4FB80109958A859B8521
:101430000097D9F0E816F906C1F0DC01ED91FC91B6
:101440000680F781E02DAE01B80109956E857F8594
:101450006115710551F08A859B85DC01ED91FC9148
:101460000480F581E02DAE0109958A819B8100976A
:10147000A9F09C012C5F3F4FE216F30679F0DC01E6
:10148000ED91FC91068CF78DE02DAE01B801DF9156
:10149000CF911F910F91FF90EF900994DF91CF9121
:1014A0001F910F91FF90EF900895EF92FF920F938D
:1014B0001F93CF93DF93EC018B017A018C859D857F
:1014C000009729F06817790711F00E9445251D87BC
:1014D0000C878E819F81009781F02A853B852E1590
:1014E0003F0559F4DC01ED91FC910484F585E02D74
:1014F000AE014C5F5F4FB8010995888599850097CB
:1015000059F0DC01ED91FC910484F585E02DAE01EC
:101510004C5F5F4FB80109958A859B850097D9F08C
:10152000E816F906C1F06E857F856115710541F0F9
:10153000DC01ED91FC910680F781E02DAE0109956B
:101540008A859B85DC01ED91FC910480F581E02D7D
:10155000AE01B80109958A819B810097A9F09C0191
:101560002C5F3F4FE216F30679F0DC01ED91FC9120
:10157000048CF58DE02DAE01B801DF91CF911F9164
:101580000F91FF90EF900994DF91CF911F910F91F0
:10159000FF90EF9008951F93CF93DF93DC01129695
:1015A000CD91DC91209749F02C853D858E859F85D6
:1015B0002115310531F4009739F4DF91CF911F9156
:1015C00008952F3F3F4F11F1019601F11BE08C85EB
:1015D0009D85009721F42E853F85232B71F31150B3
:1015E00061F3009739F0DC01ED91FC910680F78101
:1015F000E02D09958E859F85009749F3DC01ED91DB
:10160000FC910680F781E02D0995E1CF0E944525E8
:10161000CF92DF92EF92FF92CF93DF93EC016A01BA
:101620007B018E819F81892B51F0CE0104960E940F
:10163000CB0AB701A6018E819F810E940D07888980
:101640009989009781F0DC01ED91FC910480F5818E
:10165000E02DA7019601BE01DF91CF91FF90EF90A1
:10166000DF90CF900994DF91CF91FF90EF90DF90C2
:10167000CF900895EF92FF920F931F93CF93DF9334
:10168000CDB7DEB72A970FB6F894DEBF0FBECDBF39
:101690007C012E833F83488759876A8785E0FE0156
:1016A0003696DE01119601900D928A95E1F7D701E9
:1016B00016968D919C91892B71F0C70104960E941A
:1016C000CB0A29813A814B815C816D81F70186814A
:1016D00097810E942B07D70150968D919C9100977E
:1016E00069F0DC01ED91FC910280F381E02D0E8127
:1016F0001F81288539854A85B70109952A960FB635
:10170000F894DEBF0FBECDBFDF91CF911F910F9137
:10171000FF90EF900895CF92DF92EF92FF92CF93D8
:10172000DF93EC016A017B018E819F81892B51F04F
:10173000CE0104960E94CB0AB701A6018E819F813B
:101740000E94580788899989009781F0DC01ED9102
:10175000FC910190F081E02DA7019601BE01DF917F
:10176000CF91FF90EF90DF90CF900994DF91CF91D0
:10177000FF90EF90DF90CF900895FC01228133819C
:101780002115310569F4FB0122853385232B11F0E6
:101790000E94452593878287FC01738362830895A5
:1017A000C9010496EACFFC0122813381211531055C
:1017B00069F4FB0120853185232B11F00E9445251A
:1017C00091878087FC01738362830895C901EBCF01
:1017D000CF93DF93EC01888599850097E1F06A81CA
:1017E0007B8161157105B9F0DC011296ED91FC91D8
:1017F0001397309731F01186108613961C921E9223
:101800001297EA81FB81309721F0118610861B82A6
:101810001A820E94D30B8A859B850097E1F06E8126
:101820007F8161157105B9F0DC011296ED91FC9193
:101830001397309731F01386128613961C921E92DE
:101840001297EE81FF81309721F0138612861F8256
:101850001E820E94BD0BE885F985309751F0A28168
:10186000B381109731F019961C921E92189713822B
:101870001282EA85FB85309751F0A281B3811097DF
:1018800031F01B961C921E921A97138212828A8143
:101890009B81892B21F48E819F81892B11F00E94DD
:1018A0004525DF91CF910895CF93DF93EC018A8195
:1018B0009B81009749F004960E94540C8A819B8179
:1018C0000E94E80B1B821A82DF91CF91089529E9CB
:1018D00031E0FC01318320830C94540CCF93DF93CF
:1018E000EC018A819B81009741F00E946E0C8A81F5
:1018F0009B810E94E80B1B821A82DF91CF91089591
:10190000CF93DF93EC018FE192E09983888385E3A5
:1019100092E09D838C83CE0188960E94FB25CE01A8
:1019200048960E94FB258AE993E09983888380EB9F
:1019300093E09D838C83CE0104960E94670C87EA16
:1019400091E099838883CE01DF91CF910C946E0C46
:1019500004970C94800C8F929F92AF92BF92CF927B
:10196000DF92EF92FF92CF93DF93FC01828193810C
:1019700068177907D8F54A01AA24BB24C32ED42EB0
:10198000E52EFF24DC2DC22F8085982D882391F031
:10199000C82FD0E0C89DD001C99DB00DD89DB00D15
:1019A00011249B2F8C9D60011124DD2D829F9001BD
:1019B0001124C32FA685218532858385A81321C0D4
:1019C000AB01440F551F640F751F620F731FA38572
:1019D000A60FB72FB11D9C93A485A60FB72FB11DDD
:1019E000DC938585680F711DFB01C083DF91CF916A
:1019F000FF90EF90DF90CF90BF90AF909F908F902F
:101A00000895660F771F660F771F620F731FA60F6B
:101A1000B72FB11D1C92DBCFCF92DF92EF92FF92D6
:101A20000F931F93CF93DF93CDB7DEB729970FB6F0
:101A3000F894DEBF0FBECDBF8C01DC0119968D91ED
:101A40009C91892B09F473C00E94DB01F801C784C3
:101A5000D088E188F2886C157D058E059F0520F4FD
:101A60006787708B818B928BF801C784D088E1885F
:101A7000F2886C197D098E099F096C3271408105CD
:101A8000910510F3F894D80114968D919C911597B7
:101A90009A8389831996ED91FC917F01BFEFEB1A30
:101AA000FB0A80818987F80190810388F489E02D01
:101AB000D80155968C91992309F448C09081982BB0
:101AC00098879081809589238F838F818C8388E08C
:101AD0008B8358856F8149853B812C8189819A81CF
:101AE000D701508347FD252F3A952083262F39F0C3
:101AF000441F00C000006083000000C0F2CF38E047
:101B00004D9160830000019761F7D8015496FC93D2
:101B1000EE93539749873B832C839A8389837894E8
:101B20000E94DB01F8016787708B818B928B29966D
:101B30000FB6F894DEBF0FBECDBFDF91CF911F91DE
:101B40000F91FF90EF90DF90CF9008959081982BA8
:101B500098879081809589238F838F818E8388E0F9
:101B60008D8358856F8149853D812E8189819A8138
:101B7000D701508347FD252F00C000C0208300C03F
:101B800000C000C000C000C060830000262F3A954E
:101B900041F0441F000000C000C000C000C000C0F1
:101BA000E8CF38E04D9100C0608300C0019709F78D
:101BB000D8015496FC93EE93539749873D832E8327
:101BC000ACCFCF93DF93EC018E819F8197FD0CC04A
:101BD00061E00E949F0160E08E810E94710181E0BE
:101BE0008983DF91CF910895198280E0FACF0F9316
:101BF000CF93DF9300D000D0CDB7DEB78295807F42
:101C0000682B69834A832B830C838091600644E0B0
:101C100050E0BE016F5F7F4F8F5F0E94BB020F904D
:101C20000F900F900F90DF91CF910F9108950F9328
:101C3000FC01862F02812181408164E00E94F70D22
:101C40000F9108950F93FC01842F6230710599F074
:101C50006330710541F06130710559F400E020E016
:101C6000408165E004C002812181408167E00E94DB
:101C7000F70D0F91089500E02181408166E0F7CFD4
:101C8000CF93DF93811520E8920709F44DC08B3282
:101C90009105A0F5E82F823110F0EEEEE80FF0E0AC
:101CA000E253FF4FE49190917B008E2F880F880FB5
:101CB00080729F7D892B80937B00E770E064E093C6
:101CC0007C0080917A00806480937A0080917A0011
:101CD00086FDFCCF80917800909179009C0143E0D3
:101CE000220F331F4A95E1F7880F892F881F990B20
:101CF0009195822B932BDF91CF910895EC010E9457
:101D0000C709009711F40E944525DC0118962D9112
:101D10003C911997BE01621B730BED91FC910488F5
:101D2000F589E02D0995DACF90E080E0D7CF0496D1
:101D300008950296089505960895029608950396CB
:101D4000089502960895CF92DF92EF92FF92CF937B
:101D5000DF93FC01C289D3898E559F4FFC01C0805F
:101D6000D180E280F380E889F98982E08083C11420
:101D7000F1EEDF06E104F104A1F060E079E08DE32B
:101D800090E0A70196010E940F2F215031094109CF
:101D900051095695479537952795211580E13807C4
:101DA00098F0E889F989108260E874E88EE190E0A3
:101DB000A70196010E940F2F2150310941095109B5
:101DC0005695479537952795EC85FD853083EE85AB
:101DD000FF852083188EEC89FD8986E08083EA895F
:101DE000FB89808180618083EA89FB8980818860AA
:101DF0008083EA89FB89808180688083EA89FB8906
:101E000080818F7D8083DF91CF91FF90EF90DF9075
:101E1000CF90089508970C94A30E0C9449020F9349
:101E2000CF93DF93EC01462F872F00E020E06FE097
:101E30000E94F70DCF51DF4F8881882329F0DF9171
:101E4000CF910F910C944902DF91CF910F9108959A
:101E50000F93CF93DF93EC01252F872FE42FF0E032
:101E600094E0F595E7959A95E1F7062F6E2F0E947D
:101E7000F70DCF51DF4F8881882329F0DF91CF9173
:101E80000F910C944902DF91CF910F91089580FF3B
:101E90000DC0492F4F70582F5695792F72957F702E
:101EA000406B6F7784EA98E00C94280F0895E82F30
:101EB000F0E088E0489F90011124D901AE0FBF1FC8
:101EC00043E0AA0FBB1F4A95E1F7AA57B64F1B96EE
:101ED0005C911B971C964C91442321F0413108F0F2
:101EE00040E14150852F880F8160942F9F70E20F51
:101EF000F31F23E0EE0FFF1F2A95E1F7EA57F64F95
:101F00002285223069F45F77662339F040696FE7F4
:101F100070E084EA98E00C94280F406860E0F8CF05
:101F20000C94470F089508958F929F92AF92BF929D
:101F3000DF92EF92FF920F931F93CF93DF93EC0109
:101F4000EE81FF81D480898D8D1531F081E0FE0115
:101F5000ED0DF11D868BD98E888599850E94400EE6
:101F60002C853D85280F391FC901049673E096958D
:101F700087957A95E1F7281B390B3D872C87EA85F1
:101F8000FB85309709F009954E855F859A0163E0DE
:101F9000220F331F6A95E1F724604115510551F076
:101FA000B901675071094F3F5F4108F0A0C0861723
:101FB000970730F0295F3F4F2817390708F08BC08B
:101FC00023E0969587952A95E1F79F878E87EA8982
:101FD0000E2F10E026E0E29FF0011124E05BF54FA8
:101FE00020813181490142E0840E911C5FEF85160A
:101FF00053E0950608F0490126E0209FF001219F5B
:10200000F00D1124EE5AF54F0190F081E02DE330F0
:10201000F10508F032978E169F0610F0F401319604
:1020200094018815990528F09F018E179F0708F4E1
:102030009C01B12CA12C50E040E0281939094A0933
:102040005B09AFE7B0E00E94042F9F0150E040E041
:10205000281939094A095B090E94E52EB22E7E0132
:10206000ED0CF11CF7018689882349F08389422F02
:10207000481B550BCA010396079708F4168AF70107
:102080008689811128C08389821729F186E0809F83
:102090009001819F300D11242A57364FF901E253E8
:1020A000FF4F808121533F4FF9019081992321F007
:1020B000913108F090E191509F70288939898F778C
:1020C000232B11F48D0D8F77880F6B2D81600E946B
:1020D000470FF701B38ADF91CF911F910F91FF90C6
:1020E000EF90DF90BF90AF909F908F9008958617EC
:1020F000970708F465CFEFCF0895089508950895E0
:102100000895CF93DF93FC0180819181892B11F495
:1021100071836083A281B381EB01BD83AC8310978F
:1021200021F013967C936E93129773836283FB0165
:1021300013821282DF91CF910895CF93DF93AC0188
:10214000FB01C481D581209721F0828193819B83FB
:102150008A83DA0112968D919C9113978E179F07AF
:1021600021F41396DC93CE9312978281938100978A
:1021700029F0DC011596DC93CE931497DA012D91AA
:102180003C9111972E173F0711F48D939C93158264
:10219000148213821282DF91CF910895CF93DF933F
:1021A000633010F00E944525FC016483C681D7810D
:1021B000209759F0E881F9810480F581E02DCE0166
:1021C00009950A80DB81C02DF3CFDF91CF9108956F
:1021D000FC018CE393E0918380833097A1F08091A0
:1021E000AF069091B006E817F90741F0828193811C
:1021F000892B21F484819581892B29F0BF018FEAF5
:1022000096E00C949D100895FC0183E492E0918384
:1022100080833097A1F08091AB069091AC06E817CF
:10222000F90741F082819381892B21F48481958182
:10223000892B29F0BF018BEA96E00C949D1008953C
:1022400024E433E0FC01318320830C94041124E462
:1022500033E0FC01318320830C9404118F929F9210
:10226000AF92BF92DF92EF92FF920F931F93CF93A3
:10227000DF93C0915B0780E4C89FE0011124CA5737
:10228000D64F10E000E07EE0D72EEE24EA94F12C49
:1022900090918909901721F090918A0990133DC07F
:1022A00020918B09D09EF001D19EF00D1124E454B1
:1022B000F94F8081837009F468C0233D08F022ED56
:1022C000822F90E0B0E0A0E0AC01332722278824E1
:1022D000982EA92EBA2E282939294A295B29282B7C
:1022E000392B4A2B5B2BB80188E89AE00E94AB0C93
:1022F0000F5F1F4F28960430110551F688E89AE0C9
:10230000DF91CF911F910F91FF90EF90DF90BF90E1
:10231000AF909F908F900C940C0DE8898D85E89F6D
:10232000C0011124B7010E94542FF62F8E85E89F1B
:10233000C0011124B7010E94542F862E912CB12C7C
:10234000A12CBA2CA92C982C8824AF2A8F85E89F21
:10235000C0011124B7010E94542FA5019401262B1E
:102360008A85813039F489898111BDCF20E030E040
:10237000A901B9CFD09EF001D19EF00D1124E454F3
:10238000F94F8081837091F7AECF2FEF3FEF4FEF82
:1023900050E0A9CFCF93DF93DC011796CD91DC916C
:1023A000C115B0E8DB0701F1CB32D10530F462E0B2
:1023B0008C2FDF91CF910C949F01CE010E94C70911
:1023C000009711F40E944525FC0120853185BE014E
:1023D000621B730B0190F081E02D0480F581E02DEC
:1023E00042E0DF91CF910994DF91CF9108952EEBD8
:1023F00033E0FC013183208324EE33E035832483F2
:1024000022EF33E0318720872EEF33E037872687AE
:102410000C9419262AE034E0FC013183208320E368
:1024200034E0358324832EE334E0318720872AE4A7
:1024300034E0378726870C94F71104970C940A121E
:1024400008970C940A120E970C940A1204970C9495
:10245000F71108970C94F7110E970C94F711089543
:10246000089527E532E0FC01318320832DE732E037
:10247000358324832BE832E03187208727E932E057
:10248000378726870C94192623EA32E0FC01318332
:10249000208329EC32E03583248327ED32E0318735
:1024A000208723EE32E0378726870C943112089775
:1024B0000C94441204970C9444120E970C944412FA
:1024C0002FEE32E0FC013183208325E133E03583B8
:1024D000248323E233E0318720872FE233E03787FC
:1024E00026870C94441204970C94601208970C945D
:1024F00060120E970C94601204970C943112089796
:102500000C9431120E970C943112683F38F0DC01B4
:10251000ED91FC91048CF58DE02D09940895242F04
:10252000287F203F59F4403F49F06F77DC01ED915F
:10253000FC91008CF18DE02D5F7709940895CF9385
:10254000DF93CDB7DEB72A970FB6F894DEBF0FBE84
:10255000CDBF2E833F83488759876A8725E0FE01D8
:102560003696DE01119601900D922A95E1F72885A5
:102570003985232BA1F0DC01ED91FC91028CF38DC8
:10258000E02D29813A814B815C816D812A960FB6BD
:10259000F894DEBF0FBECDBFDF91CF9109942A968C
:1025A0000FB6F894DEBF0FBECDBFDF91CF91089577
:1025B00020E8240F203748F46F77DC01ED91FC917F
:1025C0000688F789E02D5F77099408950895FC0146
:1025D000608171818281938108950F931F93CF93BE
:1025E000DF93CDB7DEB72A970FB6F894DEBF0FBEE4
:1025F000CDBF633009F464C08C01643078F461307D
:1026000019F1623099F12A960FB6F894DEBF0FBE29
:10261000CDBFDF91CF911F910F910895643031F1BB
:10262000653089F744960E94E712AB01BC01C801EE
:102630002A960FB6F894DEBF0FBECDBFDF91CF91C3
:102640001F910F910C94080B44960E94E712AB0166
:10265000BC01C8012A960FB6F894DEBF0FBECDBFED
:10266000DF91CF911F910F910C948B0BF801E656DF
:10267000FF4F808191819801265E3F4F3A832983E5
:102680009C838B838D81807F8D8385E0FE013196D5
:10269000DE01169601900D928A95E1F72E813F8119
:1026A000488559856A85C8012A960FB6F894DEBF19
:1026B0000FBECDBFDF91CF911F910F910C943A0BBC
:1026C000FC01608D718D2A960FB6F894DEBF0FBEA7
:1026D000CDBFDF91CF911F910F910C94B8070F934D
:1026E0001F93CF93DF93CDB7DEB72A970FB6F89439
:1026F000DEBF0FBECDBF633009F46EC08C01643005
:1027000078F4613019F1623099F12A960FB6F89495
:10271000DEBF0FBECDBFDF91CF911F910F91089506
:10272000643031F1653089F743960E94E712AB01BE
:10273000BC01C8012A960FB6F894DEBF0FBECDBF0C
:10274000DF91CF911F910F910C94080B43960E943B
:10275000E712AB01BC01C8012A960FB6F894DEBFA0
:102760000FBECDBFDF91CF911F910F910C948B0BBA
:10277000F801218D2F70F3E82F9FC0011124F8017B
:10278000E80FF91FE656FF4F40815181800F911FDE
:102790004A969A8389835C834B838D81807F822BC9
:1027A0008D8385E0FE013196DE01169601900D9233
:1027B0008A95E1F72E813F81488559856A85C80150
:1027C0002A960FB6F894DEBF0FBECDBFDF91CF9132
:1027D0001F910F910C943A0BFC016789708D2A961A
:1027E0000FB6F894DEBF0FBECDBFDF91CF911F9122
:1027F0000F910C94B8078FE694E00895DC011896C9
:102800008D919C91009739F0DC01ED91FC9102844F
:10281000F385E02D09940895DC0118968D919C9123
:10282000009739F0DC01ED91FC910084F185E02DF9
:1028300009940895CF93DF93CDB7DEB72A970FB6EB
:10284000F894DEBF0FBECDBF2E833F8348875987E4
:102850006A8725E0FE013696DE01119601900D9201
:102860002A95E1F7DC0118968D919C910097A1F0D3
:10287000DC01ED91FC910680F781E02D29813A8100
:102880004B815C816D812A960FB6F894DEBF0FBE36
:10289000CDBFDF91CF9109942A960FB6F894DEBF91
:1028A0000FBECDBFDF91CF910895DC0118968D91B9
:1028B0009C91009739F0DC01ED91FC910480F58149
:1028C000E02D09940895DC011A968D919C91009752
:1028D00039F0DC01ED91FC910084F185E02D099443
:1028E00090E080E0089504970C946314DC0118963E
:1028F0008D919C91009739F0DC01ED91FC9100885D
:10290000F189E02D099490E080E0089508950895FC
:10291000FC019081923F29F081E0943F18F080E023
:10292000089582E00895AF92BF92CF92DF92FF9216
:102930000F931F93CF93DF9300D000D0CDB7DEB7B6
:102940006C012BE8C20ED11CF6012081211107C0B9
:1029500031962081222309F458C0F6012083F62EF7
:102960008C01F6019081F801908380E8890F58016D
:10297000FAE8AF0EB11CF5012081222399F18037CE
:1029800050F4F8016283F501108232969083F601CB
:10299000108281E019C0892F887F803F09F04BC0E9
:1029A000903F09F448C0F8016283F5011082F801F4
:1029B000E757FF4F8081882321F0F801E457FF4F4C
:1029C0001082F601108285E00F900F900F900F900B
:1029D000DF91CF911F910F91FF90DF90CF90BF902B
:1029E000AF900895803798F4892F807F813B40F025
:1029F000803E31F0F80161831282E457FF4FC6CF69
:102A0000F801F18281E0F501808380E0DDCF892F3C
:102A1000887F803F71F4903FA9F4F801EA57FF4F97
:102A2000208131812038310530F13796F08284E001
:102A3000CBCF903F91F3F801E457FF4F1082F6019E
:102A40001082E3CFF80180819181A281B3818983D3
:102A50009A83AB83BC83CE0101960E948814823096
:102A600079F2CE0101960E948814813021F7F80195
:102A7000F18212829DCFD801A20FB31F1696FC924D
:102A80002F5F3F4F31832083C0CFEF92FF920F9390
:102A90001F93CF93DF93EC01EA88FB888C010C5ED7
:102AA0001F4FFC01EF55FF4F60816F3FF1F08FEF3B
:102AB000808332978081803F31F435971182108274
:102AC00081E03296808367FF0BC0683FF8F0688F23
:102AD00083E0DF91CF911F910F91FF90EF900895C8
:102AE000C8010E9493148111F4CFD701ED91FC919C
:102AF0000284F385E02DC701099597FD0BC0682F6F
:102B000087FFEECF883F10F0888FE2CFC8010E9488
:102B10002A06E9CF80E0DDCF8F929F92AF92BF92DD
:102B2000CF92DF92EF92FF920F931F93CF93DF9399
:102B3000EC010E944515F82E882309F452C05E016D
:102B400024E0A20EB11CC5010E9476076E01EEE0E2
:102B5000CE0ED11C209711F4D12CC12C8C159D05C3
:102B600021F4B601C5010E949A07E12C00E811E0AA
:102B70004E01FAE98F0E911C6F2DCE010E94ED12CD
:102B800024E0F21221C0F40180819181081B190B0D
:102B9000EE24E39417FD06C0CE010E944515F82EE1
:102BA0008111EACFEE20E9F0B601C501DF91CF91A6
:102BB0001F910F91FF90EF90DF90CF90BF90AF905B
:102BC0009F908F900C94A907F2E0FF1207C0F401C8
:102BD00080819181081B190BE12CDCCF0350110976
:102BE000D9CFDF91CF911F910F91FF90EF90DF90A0
:102BF000CF90BF90AF909F908F900895CF92DF922B
:102C0000EF92FF921F93CF93DF93EC017C0124E0BE
:102C1000E20EF11CC7010E948607BE01625F7F4F72
:102C2000209711F470E060E0C7010E949A070E94AB
:102C300032026B017C010E9432026C197D098E09FF
:102C40009F09643F71408105910560F4CE010E94A7
:102C50004515182F682FCE010E94ED12143039F35C
:102C6000123049F7DF91CF911F91FF90EF90DF90E5
:102C7000CF9008950E970C94FE150C94FE150F93AB
:102C80001F93CF93DF9300D000D0CDB7DEB78C0178
:102C900049835A836B837C83DC0152968D919C918E
:102CA000DC01ED91FC910190F081E02D642F0995FC
:102CB000CE0101960E948814882359F0F801828978
:102CC0009389DC01ED91FC910190F081E02D6A8106
:102CD0000995CE0101960E948814823058F0F801BF
:102CE00082899389DC01ED91FC910190F081E02DC6
:102CF0006B8109950F900F900F900F90DF91CF91FE
:102D00001F910F910895EF92FF920F931F93CF930E
:102D1000DF9300D000D0CDB7DEB77C0149835A8362
:102D20006B837C831C81CE0101960E9488148130C4
:102D3000E1F000F1823039F40B812A81498163E0AE
:102D4000812F0E94F70DF701EF51FF4F80818823FB
:102D5000B1F00F900F900F900F90DF91CF911F91D6
:102D60000F91FF90EF900C94490200E02A81498175
:102D700062E0E6CF00E020E0498165E0E1CF0F901E
:102D80000F900F900F90DF91CF911F910F91FF90B7
:102D9000EF900895FF920F931F93CF93DF9306E870
:102DA00019E0D0E0C0E0F801F1908F01CE010E945F
:102DB000CF2EF81621F06F2DCE010E94D72E21962E
:102DC000C63DD10581F786E899E0DF91CF911F914B
:102DD0000F91FF9008950F931F930E94320200916C
:102DE00078041091790420917A0430917B04601B5F
:102DF000710B820B930B693E73408105910560F066
:102E00000E94CA160E94320260937804709379047B
:102E100080937A0490937B041F910F910895BF9241
:102E2000CF92DF92EF92FF920F931F93CF93DF9396
:102E3000C0905B07811105C0809100018C1509F4D9
:102E400052C04091760A5091770A70E060E080911C
:102E50007B0A90917C0A0E94A13096E8E92E91E0CD
:102E6000F92ED12CCFEFD0E0D701ED917D01F0E02C
:102E700020E030E0A901CD1027C040918F0980915A
:102E80008C09489FC0011124BE010E94542FB62E08
:102E900080918D09489FC0011124BE010E94542FCA
:102EA000062F10E030E020E0322F212F102F0027D6
:102EB0002B2980918E09489FC0011124BE010E94D8
:102EC000542FA9019801262BBF0182E79AE00E94A6
:102ED000AB0CD394B3E0DB12C7CF82E79AE00E9439
:102EE0000C0DC0920001DF91CF911F910F91FF90C7
:102EF000EF90DF90CF90BF900895CF93DF93EC01D8
:102F00000E94E810CE01DF91CF910C940A30CF934C
:102F1000DF93EC010E94670CCE01DF91CF910C94FE
:102F20000A30CF93DF93EC010E94800CCE01DF9139
:102F3000CF910C940A3004970C9491170C940A309A
:102F40000C940A300C940A30CF93DF93EC010E946A
:102F50006012CE01DF91CF910C940A3004970C944B
:102F6000A41708970C94A4170E970C94A417CF934A
:102F7000DF93EC010E940A12CE01DF91CF910C94F5
:102F80000A3004970C94B71708970C94B7170E974C
:102F90000C94B717CF93DF93EC010E942011CE0160
:102FA000DF91CF910C940A30CF93DF93EC010E9414
:102FB0002711CE01DF91CF910C940A300C940A3086
:102FC000CF93DF93EC010E940411CE01DF91CF91EA
:102FD0000C940A30CF93DF93EC010E94F711CE01DD
:102FE000DF91CF910C940A300E970C94EA17089752
:102FF0000C94EA1704970C94EA17CF93DF93EC0133
:103000000E944412CE01DF91CF910C940A300E97AA
:103010000C94FD1708970C94FD1704970C94FD175A
:10302000CF93DF93EC010E943112CE01DF91CF915B
:103030000C940A300E970C94101808970C941018E2
:1030400004970C9410180E94933084E0E3E7F4E0B6
:10305000DB0101900D928A95E1F784E00895CF920B
:10306000DF92FF920F931F93CF93DF93CDB7DEB71D
:103070002C970FB6F894DEBF0FBECDBF242F30E0E3
:10308000E4E035952795EA95E1F72115310511F032
:1030900080E027C0E42FEF70E250EE30C8F7F0E098
:1030A000EC5AF74E0C94682F621862187F18D918E2
:1030B00019197919D119D119D119D119D119D119D0
:1030C000D119E119DC015C9311966C93119712965A
:1030D0007C93129713962C911397207F13962C9321
:1030E00085E02C960FB6F894DEBF0FBECDBFDF9102
:1030F000CF911F910F91FF90DF90CF900895498756
:103100005A876B877C87503F99F563E8629FA001DF
:10311000639F500D1124480F591FFA01E957FF4FC3
:103120001182108247575F4F61E0FA01608363E8C4
:10313000629FD001639FB00D11249C012A0F3B1F99
:1031400029573F4FF901608171816E377105F0F0A9
:1031500049855A856B857C85FC01E657FF4F408386
:10316000518362837383DC0116961C9284E0B9CF8D
:1031700043E8429FF001439FF00D1124E80FF91F2F
:10318000E757FF4F40814111D2CF82CF1796A60F4C
:10319000B71FA80FB91F83E0FE013A9601900D9268
:1031A0008A95E1F7F901808191810396918380836B
:1031B0006FCFF12C573F29F0DC015C931396FC9202
:1031C0008FCFA3E8A29FF001A39FF00D11249C01D3
:1031D0002E0F3F1F6901B9E8CB0ED11CD601EC912F
:1031E000EE2309F455CF890109571F4FD801ED91FE
:1031F000FC91E038F10568F0FC01E657FF4F408391
:10320000319650833196608331967083FC01F6824B
:10321000ADCF2E0F3F1FD90117965C933196D80181
:10322000ED93FC93F6011082DC011696FC9282E08D
:1032300058CF4D835E836F83788760E0503F99F568
:1032400073E8729FA001739F500D1124480F591FFE
:10325000FA01E957FF4F1182108247575F4F71E023
:10326000FA01708373E8729FF001739FF00D1124CF
:103270009C012E0F3F1FD901A957BF4F0D911C91E3
:1032800011970F371105E8F00D811E812F813885C8
:10329000FC01E657FF4F0083118322833383DC0157
:1032A00016966C9363CF43E8429FF001439FF00D65
:1032B0001124E80FF91FE757FF4F40814111D2CF8A
:1032C000E7CE3796E00FF11FE80FF91F4E815F81BF
:1032D000518340834D915C9111974E5F5F4F4D93A9
:1032E0005C9327573F4FF9011082DC0116966C93CF
:1032F0009ECF49835A836B837C8360E0503F49F5BE
:1033000073E8729FA001739F500D1124480F591F3D
:10331000FA01E957FF4F1182108247575F4F71E062
:10332000FA01708373E8729FD001739FB00D11246E
:103330009C012A0F3B1F890109571F4FF80140814B
:1033400051814E37510598F009811A812B813C81BA
:103350009FCF43E8429FF001439FF00D1124E80FF7
:10336000F91FE757FF4F40814111DCCF91CE1796EF
:10337000A40FB51FA80FB91F43E0FE0132960190BC
:103380000D924A95E1F7F801408151814D5F5F4F01
:103390005183408327573F4FD9011C92FC0166831C
:1033A00046CFDC015C9311966C93119712967C9337
:1033B000129713962C911397207F13962C9381E0EC
:1033C00090CEFC0154832581207F258383E089CE24
:1033D0008F929F92AF92BF92CF92DF92EF92FF9225
:1033E0000F931F93CF93DF9300D000D0CDB7DEB7FC
:1033F0008C01FC01E657FF4F8081882309F1408151
:103400005181628173811082D80116968C918F70E0
:10341000F80123E8829FE00DF11D1124CF01E75749
:10342000FF4F2081222339F089579F4FDC011D92E5
:103430001C9281E08083C8010E942F18811163C013
:103440008091BC059091BD05A091BE05B091BF05CE
:103450004091C0055091C1056091C2057091C305AE
:10346000841B950BA60BB70B8F739927AA27BB2735
:10347000892B8A2B8B2B09F457C08091C005909122
:10348000C105A091C205B091C305880F991F880F8F
:10349000991FFC01E454FB4F80815181628173814B
:1034A0008090BC059090BD05A090BE05B090BF0572
:1034B000C090C005D090C105E090C205F090C30552
:1034C0008C149D04AE04BF04D1F0C090C005D09010
:1034D000C105E090C205F090C305FFEFCF1ADF0AE7
:1034E000EF0AFF0A2FE3C222DD24EE24FF24C0925C
:1034F000C005D092C105E092C205F092C305482FE5
:10350000811199CF80E00F900F900F900F90DF9175
:10351000CF911F910F91FF90EF90DF90CF90BF90D0
:10352000AF909F908F900895809160060E94DF0376
:1035300070E060E050E0882309F4B2CFC090BC0591
:10354000D090BD05E090BE05F090BF05BFEFCB1A4F
:10355000DB0AEB0AFB0AEFE3CE22DD24EE24FF2494
:103560008091C0059091C105A091C205B091C3059D
:103570008C159D05AE05BF0509F47FCF80916006CF
:103580000E94DF0344E050E0BE016F5F7F4F8091F7
:1035900060060E946B0304970CF46FCF8091BC050A
:1035A0009091BD05A091BE05B091BF05880F991FF0
:1035B000880F991F84549B4F49815A816B817C816C
:1035C000DC014D935D936D937C931397C092BC0582
:1035D000D092BD05E092BE05F092BF05B7CF8F92A5
:1035E0009F92AF92BF92EF92FF921F93CF93DF9380
:1035F000EC017C0124E0E20EF11CC7010E94860769
:10360000BE01625F7F4F209711F470E060E0C70158
:103610000E949A070E9432024B015C017E0183E105
:10362000E80EF11C0E943202681979098A099B0987
:10363000643F71408105910588F4C7010E94E81933
:10364000182F682FCE010E946F13143029F40E94A6
:1036500032024B015C01E6CF123021F7DF91CF91AE
:103660001F91FF90EF90BF90AF909F908F90089523
:103670000E970C94EF1A0C94EF1A7F928F929F92F0
:10368000AF92BF92CF92DF92EF92FF920F931F9370
:10369000CF93DF93EC014C0123E1820E911CC40116
:1036A0000E94E819F82E882309F461C05E0184E0C5
:1036B000A80EB11CC5010E9476076E012EE0C20E55
:1036C000D11C209711F4D12CC12C8C159D0521F40F
:1036D000B601C5010E949A07E12C00E811E083E8D9
:1036E000782E6F2DCE010E946F1384E0F8122AC04D
:1036F000898D8F70FE01789EE00DF11D1124E65634
:10370000FF4F80819181081B190BEE24E39417FD74
:1037100006C0C4010E94E819F82E8111E2CFEE2004
:1037200031F1B601C501DF91CF911F910F91FF904B
:10373000EF90DF90CF90BF90AF909F908F907F9051
:103740000C94A90722E0F2120FC0898D8F70FE0140
:10375000789EE00DF11D1124E656FF4F8081918186
:10376000081B190BE12CD3CF03501109D0CFDF91E7
:10377000CF911F910F91FF90EF90DF90CF90BF906E
:10378000AF909F908F907F90089508970C943D1B69
:103790000C943D1B3F924F925F926F927F928F925B
:1037A0009F92AF92BF92CF92DF92EF92FF920F93D0
:1037B0001F93CF93DF93CDB7DEB72C970FB6F89456
:1037C000DEBF0FBECDBF9C878B872E833F8348878C
:1037D00059876A8785E0FE013696DE0111960190D1
:1037E0000D928A95E1F7C884D984C114D10409F4F3
:1037F00049C04E805F809A859F703D80A92EB12C74
:10380000F20180810B851C850F551F4F803F21F4ED
:10381000F801EA0DFB1D10AAD201760138016A0CED
:103820007B1CF0E36F0E711C9501220F331F2A0DD4
:103830003B1D200F311F4D01F3015081533008F023
:1038400072C081E0850F80834D91F901E50FF11D74
:103850004083F1E0EF1AF10871F7C40CD51CF601B2
:1038600031972081273F79F5682F70E0432D98012B
:1038700053E0959F200D311D1124C9010E94220E95
:10388000F3011082EB85FC85EF51FF4F8081882387
:1038900009F462C02C960FB6F894DEBF0FBECDBF00
:1038A000DF91CF911F910F91FF90EF90DF90CF901C
:1038B000BF90AF909F908F907F906F905F904F9050
:1038C0003F900C9449028330E9F6632D9801989F4C
:1038D000200D311D1124C9010E94170ED1CFC40C37
:1038E000D51CF60131978081873F49F043E0E4160B
:1038F000F10479F4632DC4010E94170E05C0432D15
:10390000B701C4010E94220E0A0D1B1DF80110AA66
:10391000B9CF0A0D1B1DF801E0AAA701B401C3012C
:103920000E949830AFCF3801F3E09F9F600C711C6C
:103930001124632DC3010E94170EF4E0EF16F10469
:1039400070F2632DC4010E94170E23E0820E911CB9
:1039500033E0E31AF108F1CF2C960FB6F894DEBFEE
:103960000FBECDBFDF91CF911F910F91FF90EF90D0
:10397000DF90CF90BF90AF909F908F907F906F908F
:103980005F904F903F900895EF92FF920F931F9397
:10399000CF93DF93CDB7DEB72A970FB6F894DEBF8B
:1039A0000FBECDBF8A014B33510510F00AE310E082
:1039B0009CE7E92E94E0F92E90EF90937C049DE72C
:1039C00090937D049091880990937E0480937F0466
:1039D000A80180E894E00E949830F801E458FB4F79
:1039E00087EF84830B5F1F4F2E2DFF82EE82402FC7
:1039F000198708876A85607F3F81598584EA98E046
:103A00000E94CA1B2E2DFA82E982402F1C830B8351
:103A10006D81607F3A815C818EEF97E02A960FB6C8
:103A2000F894DEBF0FBECDBFDF91CF911F910F91F4
:103A3000FF90EF900C9498064F925F926F927F9256
:103A40008F929F92AF92BF92CF92DF92EF92FF92AE
:103A50000F931F93CF93DF9300D0CDB7DEB77C01D8
:103A6000D0905B07DC0117960D911C910115B0E811
:103A70001B0701F10B321105F8F4F801E65AFE4F6D
:103A80008491F801E758FE4FC4900A551E4FF80183
:103A90000491002379F081110E942501E02FF0E0CC
:103AA000EE0FFF1FE455FF4FA591B491EC91CE228C
:103AB00081E0B9F480E015C0C8010E94C7090097F1
:103AC00011F40E944525DC0118962D913C9119971F
:103AD000B801621B730BED91FC910484F585E02D18
:103AE0000995F70191859295917001E0981301C0B5
:103AF00000E00E943202AB01BC01D70119968C9103
:103B0000199782FF20C01A968D919D910D90BC91BE
:103B1000A02D2A013B01481A590A6A0A7B0A91E042
:103B200080900F0190901001A0901101B0901201AF
:103B300084149504A604B70408F490E0F701818585
:103B400090FB82F98187D70119968C91182F1170FB
:103B500082FF47C0812F110F182B912F9370F7010F
:103B600081858C7F892B818783FB992790F90917A1
:103B700041F0846000FB83F9818742875387648723
:103B80007587A12E012E000CBB08C5010197029775
:103B900090F4F7018681898381E0F2E0AF16B104E9
:103BA00009F080E08A8342E050E0BE016F5F7F4F02
:103BB0008AE00E94C41CD70116968C9190918909C5
:103BC000891311C0123079F48D2D90E0019663E0D5
:103BD00070E00E94542F682F87E597E00E94CE1076
:103BE00035C0802FB8CF90918A09891308C0123050
:103BF00031F46FEF6D0DD110EFCF62E0EDCF2D2DD1
:103C000030E0482F50E0123009F03FC0F90163E086
:103C1000EE0FFF1F6A95E1F7E40FF51F73E0EE0F5B
:103C2000FF1F7A95E1F7EA57F64F9285913009F533
:103C300081899827918B6FE7911101C060E04D2D2C
:103C4000F70186810E94570F0E94EB160F900F908C
:103C5000DF91CF911F910F91FF90EF90DF90CF9068
:103C6000BF90AF909F908F907F906F905F904F909C
:103C70000895933011F4C901A9CF943009F4B9CF54
:103C80004D2D6FE70E94570FE1CFAA94AB28F1F6B4
:103C9000F90193E0EE0FFF1F9A95E1F7E40FF51F8E
:103CA00023E0EE0FFF1F2A95E1F7EA57F64F9285C2
:103CB000913061F2933050F64D2D60E0E3CFBF922A
:103CC000CF92DF92EF92FF920F931F93CF93DF93E8
:103CD000CDB7DEB7C154D1090FB6F894DEBF0FBE21
:103CE000CDBF0DAF1EAF2FAF21963FAF21972296CC
:103CF0004FAF229721968EAD9FAD219785309105CC
:103D000008F456C0EDADFEAD21812D3709F050C04D
:103D100032812091880932134BC01381143081F510
:103D20007E0139E2E30EF11C6AEB70E0C7010E94EC
:103D3000C82EF70101900020E9F73197EE19FF092D
:103D400083E0898392E09A831B821C821D839E8379
:103D50001F83888781E089878A87EB878F011127F6
:103D6000A801B701CE010C960E949830A801455FCA
:103D70005F4FBE016F5F7F4F85E00E94C41C18C07B
:103D8000113009F060C0BB24BA94059709F0B480E3
:103D9000E6E8CE2EE9E0DE2E10E04FEFB416C9F0D3
:103DA000B116B9F01F5F80E4C80ED11C1330A9F71B
:103DB000CF5BDF4F0FB6F894DEBF0FBECDBFDF91F4
:103DC000CF911F910F91FF90EF90DF90CF90BF9018
:103DD0000895760100E019830A83F70182858B83B9
:103DE00083858C8384858D838585982F991F99275A
:103DF000991F9E838F778F838685982F991F992788
:103E0000991F98878F7789878785982F991F99277A
:103E1000991F9A878F778B878089982F991F992769
:103E2000991F9C878F778D874DE050E0BE016F5FB3
:103E30007F4F83E00E94C41C0F5FF8E0EF0EF11C7F
:103E4000083049F6AFCF123009F057C0429708F456
:103E5000AFCF8481833008F0ABCF2581283008F0C4
:103E6000A7CF368148E0849FC0011124820F911DA5
:103E7000DC0163E0AA0FBB1F6A95E1F7AA57B64FB2
:103E80001A963C931A9727811B962C931B97208593
:103E90001C962C931C97218530E8239FA0011124A8
:103EA0002285242B1D962C931D97238530E8239F74
:103EB000A00111242485242B1E962C931E97258562
:103EC00030E8239FA00111242685242B1F962C93D4
:103ED00073E0880F991F7A95E1F7DC01AA56B64F77
:103EE000878540E8849F900111248089822B8C93E0
:103EF0000E94EB160E942E115BCF163079F50B97BE
:103F000008F456CF8481823008F052CF189FC00148
:103F100011248A57964FDC01A653BF4F258140E8F4
:103F2000249F900111244681242B11963C932E93BB
:103F30001296278140E8249F900111244085242B6C
:103F400011963C932E93218512962C9322858153B2
:103F50009F4FFC0120830E94EB162ACF1F30E1F512
:103F6000EE24EA94059709F0E48000E51AE0F12CCC
:103F7000FFEFEF1611F0EF1026C0F982F8018081F3
:103F800091819C01220F232F221F330B31952F7714
:103F90002A838F778B83828193819C01220F232F29
:103FA000221F330B31952F772C838F778D8384815C
:103FB0008E8385818F8347E050E0BE016F5F7F4F26
:103FC00080E10E94C41C0A5F1F4FF1E0FF1609F454
:103FD000EFCEFF24F394CCCF173051F4848180933B
:103FE0008909858180938A09868180938B0980CF96
:103FF0001830A1F580918909898380918A098A8383
:1040000080918B098B8380918C09982F991F992718
:10401000991F9C838F778D8380918D09982F991F8D
:104020009927991F9E838F778F8380918E09982F70
:10403000991F9927991F98878F77898780918F0972
:10404000982F991F9927991F9A878F778B874BE015
:1040500050E0BE016F5F7F4F88E08FCE1C30E1F5EE
:10406000059709F4A5CEF48031E03F1508F4A0CE01
:10407000E5808091450790914607FF2021F08091CF
:104080002B0790912C070E94400E8C018F2D90E001
:1040900026E0289FF001299FF00D1124E11019C09E
:1040A000E05BF54F118300830E94EB16F982EA82F0
:1040B000C801880F892F881F990B91958F778B8363
:1040C0000F770C8344E050E0BE016F5F7F4F8CE0C0
:1040D00054CEEE5AF54FE6CF1D3069F50C9708F433
:1040E00067CE848140E8849F900111248581822BD2
:1040F00080938C09868190E8899F900111248781A3
:10410000822B80938D09808540E8849F9001112443
:104110008185822B80938E09828590E8899F90010A
:1041200011248385822B80938F090E94EB1681E0F6
:104130000E940F173DCE193009F04BC08D35910507
:1041400008F436CEA481A33008F032CE30E4A39F29
:10415000D0011124AA57B64FAF01485A5F4F85814D
:104160001A968C931A9786811B968C931B9787813E
:104170001C968C931C97808590E8899F9001112450
:104180008185822B1D968C931D97828590E8899F4F
:10419000900111248385822B1E968C931E97848513
:1041A00090E8899F900111248585822B1F968C931E
:1041B0001F97868590E8899F900111248785822B1F
:1041C00050968C9350973B961896E417F50739F65E
:1041D0008FCE1E3009F0ECCD87E797E7909301086A
:1041E0008093000888E198E00FB6F894A895809332
:1041F00060000FBE90936000FFCF1F920F920FB62A
:104200000F9211242F933F938F939F93AF93BF935C
:104210008091050690910606A0910706B0910806C8
:104220003091040623E0230F2D3758F50196A11D88
:10423000B11D209304068093050690930606A09373
:104240000706B09308068091090690910A06A0918E
:104250000B06B0910C060196A11DB11D80930906B5
:1042600090930A06A0930B06B0930C06BF91AF91F2
:104270009F918F913F912F910F900FBE0F901F90A4
:10428000189526E8230F0296A11DB11DD2CF1F92CB
:104290000F920FB60F9211242F933F934F935F937A
:1042A0006F937F938F939F93AF93BF93EF93FF93FE
:1042B000E0910D01F0910E010995FF91EF91BF91F1
:1042C000AF919F918F917F916F915F914F913F91AE
:1042D0002F910F900FBE0F901F9018951F920F9265
:1042E0000FB60F9211242F933F934F935F936F93C9
:1042F0007F938F939F93AF93BF93EF93FF93E0913F
:104300000B01F0910C010995FF91EF91BF91AF91D5
:104310009F918F917F916F915F914F913F912F91DD
:104320000F900FBE0F901F9018951F920F920FB60F
:104330000F9211242F933F934F935F936F937F932B
:104340008F939F93AF93BF93EF93FF93E0910901F6
:10435000F0910A010995FF91EF91BF91AF919F9163
:104360008F917F916F915F914F913F912F910F901E
:104370000FBE0F901F9018951F920F920FB60F92BD
:1043800011242F933F934F935F936F937F938F935A
:104390009F93AF93BF93EF93FF93E0910701F09149
:1043A00008010995FF91EF91BF91AF919F918F9176
:1043B0007F916F915F914F913F912F910F900FBE21
:1043C0000F901F9018951F920F920FB60F92112405
:1043D0002F933F934F935F936F937F938F939F930D
:1043E000AF93BF93EF93FF93E0910501F091060126
:1043F0000995FF91EF91BF91AF919F918F917F911F
:104400006F915F914F913F912F910F900FBE0F9041
:104410001F9018951F920F920FB60F9211242F9391
:104420003F934F935F936F937F938F939F93AF933C
:10443000BF93CF93EF93FF93C091E1008091E10090
:10444000837F8093E100C3FF0FC01092E90081E0F9
:104450008093EB001092EC0082E38093ED001092C9
:10446000D90588E08093F000C2FF1BC083E00E9462
:104470003F028091D605882341F08091D605815076
:104480008093D605811101C05D988091D505882360
:1044900041F08091D50581508093D505811101C0EF
:1044A0002898C4FF23C08091E2008E7E81608093B3
:1044B000E2008091E1008F7E8093E1008091D7053A
:1044C0008E7E80618093D705FF91EF91CF91BF9150
:1044D000AF919F918F917F916F915F914F913F919C
:1044E0002F910F900FBE0F901F901895C0FFECCF2B
:1044F0008091E2008E7E80618093E2008091E100F5
:104500008E7E8093E1008091D7058E7E8160DACF28
:104510001F920F920FB60F921124CF92DF92EF925B
:10452000FF920F931F932F933F934F935F936F933C
:104530007F938F939F93AF93BF93EF93FF93CF930B
:10454000DF93CDB7DEB76C97DEBFCDBF1092E90029
:104550008091E80083FF25C068E0CE0145960E9467
:10456000F80382EF8093E8008D8987FF39C090912E
:10457000E80090FFFCCF982F907609F034C19E8917
:104580004F89588D2F89F88C911131C0803861F591
:104590008091D8058093F1001092F1008EEF809306
:1045A000E8006C960FB6F894DEBF0FBECDBFDF916A
:1045B000CF91FF91EF91BF91AF919F918F917F919B
:1045C0006F915F914F913F912F911F910F91FF90AC
:1045D000EF90DF90CF900F900FBE0F901F90189527
:1045E0009EEF9093E800C7CF1092F100D5CF9130A5
:1045F00059F48111D3CF4130510581F68091D8050E
:104600008D7F8093D805CACF933049F48111C6CFEE
:104610004130510519F68091D8058260F2CF95306E
:1046200041F48091E80080FFFCCF20682093E300F4
:10463000B5CF963009F0A9C00B8D1C8D22E01092E9
:10464000E9001092D3051092D205F2122EC01092FA
:10465000D1051092D0050E9446041F8299E09983EB
:10466000FA8291E09E8390EA98879AEF9987209149
:10467000D2053091D305275F3F4F3C832B838D8339
:104680001092E9001092D3051092D2051093D10533
:104690000093D00549E050E0BE016F5F7F4F80E09E
:1046A0000E947F020E94460479CF1093D1050093A7
:1046B000D0050E943204DC0112960D911C91011567
:1046C000110509F451C1D801ED91FC910480F581E7
:1046D000E02DBE016B5E7F4FC8010995009709F080
:1046E0003EC1F80100851185EACFF3E0FF120EC04C
:1046F0008F89882309F440C0823061F440E86DE07E
:104700008EE391E00E941225811148CF81E28093CF
:10471000EB0047CF813029F440E86BE082E391E081
:10472000F1CF833099F70E943204DC011296ED90AC
:10473000FC908E010F5F1F4F6801E114F10479F0C6
:10474000D701ED91FC910680F781E02DB801C701FA
:104750000995080F111DF701E084F184EECFD8010F
:104760001C92F60101900020E9F73197BF016C1906
:104770007D0940E0C601C6CF6CE171E0FB014491C8
:1047800050E080E80E947F0209CF973009F4BECF45
:10479000983021F481E08093F10000CF993009F046
:1047A000FDCE837009F0B2CFEEE1F1E081E031E0BF
:1047B00096E32191222371F08093E9003093EB007E
:1047C000DF0111972C912093EC009093ED008F5F07
:1047D000873079F78EE78093EA001092EA008F899C
:1047E0008093D905DBCE8B8D9C8D1092E9001092C1
:1047F000D3051092D2059093D1058093D005898D71
:10480000811192C08E899D89913A49F4813209F0D3
:104810007DCF47E050E065E171E080E0B3CF9132B9
:1048200009F074CF833269F48F89988DB0E0A0E0ED
:104830008093010190930201A0930301B0930401BE
:10484000ADCE803269F48091E80082FFFCCF67E052
:1048500085E191E00E94F8038BEF8093E8009ECE03
:10486000823209F09BCE8F8980931C01EEEFFFE727
:10487000859194918B3F9C4D51F1E0E0F8E080915F
:10488000150190911601A0911701B0911801803B7C
:104890009440A105B105F1F480911C0180FD1AC07E
:1048A000EE3F8AE0F80789F587E797E791838083F1
:1048B000809160008093D40588E19BE00FB6F89466
:1048C000A895809360000FBE9093600067CEEEEFD6
:1048D000FAE0D5CF808191818737974709F05ECE86
:1048E000A895809160008861809360008091D405D4
:1048F00080936000EE3F2AE0F20789F08091FE0A83
:104900009091FF0A9183808349CE8081918187377E
:10491000980751F29093FF0A8093FE0AC5CF109238
:10492000FF0A1092FE0A3ACE0E943204DC0112966F
:104930000D911C910115110509F4E8CED801ED91F6
:10494000FC910190F081E02DBE016B5E7F4FC801AC
:104950000995811123CEF80100851185EBCF18163A
:1049600019060CF41BCED2CEF1E0FF12BECE60E2EF
:1049700071E004CF1F920F920FB60F9211242F9364
:104980003F934F935F936F937F938F939F93AF93D7
:10499000BF93EF93FF9381E697E00E94C804FF91D5
:1049A000EF91BF91AF919F918F917F916F915F91A7
:1049B0004F913F912F910F900FBE0F901F90189520
:1049C0001F920F920FB60F9211242F938F939F93E4
:1049D000EF93FF93E0917107F09172078081E0916E
:1049E0007707F091780782FD1BC0908180917A074C
:1049F0008F5F8F7320917B07821741F0E0917A07D8
:104A0000F0E0EF59F84F958F80937A07FF91EF917F
:104A10009F918F912F910F900FBE0F901F9018951F
:104A20008081F4CFEF92FF920F931F93CF93DF9388
:104A3000F82E192FE62E042F81E0860F880F0E9492
:104A4000510283E00E945102CF2DD12FEC0EFD2E9A
:104A5000F11CCE15DF05B9F007FF13C0FE018491EC
:104A60000E945102182F80E00E945102812321965A
:104A70008111EFCFDF91CF911F910F91FF90EF90B8
:104A800008958881EDCF81E0F5CF61E08DE00E944F
:104A90009F0161E08DE00E94710162E370E080E0BF
:104AA00090E00E94000260E08DE00E94710162E3EC
:104AB00070E080E090E00E94000261E08DE00E94E2
:104AC000710162E370E080E090E00E94000260E02B
:104AD0008DE00E94710162E573E080E090E00E9449
:104AE0000002D7CF0F931F93CF93DF93EC018B017D
:104AF0008885998584179507F9F41D861C868A8513
:104B00009B85009741F0DC01ED91FC910680F781D7
:104B1000E02DAE0109958A819B81009701F1DC01AE
:104B2000ED91FC91068CF78DE02DAE01B801DF917F
:104B3000CF911F910F9109946E857F856017710742
:104B400071F41F861E868A859B85009741F0DC01E3
:104B5000ED91FC910680F781E02DAE01E8CFDF9169
:104B6000CF911F910F91089504970C9472250F9384
:104B70001F93CF93DF93EC01888599858417950760
:104B800001F58B017D876C878A859B85009741F0B5
:104B9000DC01ED91FC910480F581E02DAE010995D9
:104BA0008A819B810097F9F0DC01ED91FC91048CE6
:104BB000F58DE02DAE01B801DF91CF911F910F91DE
:104BC00009948E859F85892B71F47F876E878A85EE
:104BD0009B85009741F0DC01ED91FC910480F5810B
:104BE000E02DAE01E9CFDF91CF911F910F91089594
:104BF00004970C94B725CF93DF93EC018DEE91E0F1
:104C00009983888381E192E09D838C83CE010E9409
:104C1000E80BCE0104960E94670C87EA91E0998325
:104C20008883CE01DF91CF910C946E0C04970C9485
:104C3000FB25CF93DF93EC0180E593E09983888394
:104C400084E793E09D838C8382E893E0998788874B
:104C50008EE893E09F878E878091DA059091DB053F
:104C6000009749F42091B1063091B2062115310523
:104C700011F0C9010897C817D90721F41092DB0574
:104C80001092DA0584E493E099878887CE0108962C
:104C90000E94E8108AE993E09983888380EB93E08F
:104CA0009D838C83CE0104960E94670C87EA91E075
:104CB00099838883CE01DF91CF910C946E0C0F9372
:104CC0001F93CF93DF93EC01062F142F1B821A82C0
:104CD0001D821C8283E492E099838883BE018BEA63
:104CE00096E00E9481108DE891E0998388830E837D
:104CF000412F50E058874F8389858F608F7E898749
:104D00001A861B861C861D86DF91CF911F910F91FD
:104D10000895CF92DF92EF92FF920F931F93CF935C
:104D2000DF93EC016B01F42EE52E198218861F86A5
:104D3000188A198A1A8A81E08E878B871C8692E0EE
:104D40009D8788838B01000F111F060F171F1D837E
:104D50000C83C8010E946E2F9A878987009789F17A
:104D6000A80170E060E00E94A130DB82CA82FE826E
:104D7000EF828981882341F061E08F2D0E949F019D
:104D800060E08F2D0E9471018F2D9E2DFC01EA5550
:104D9000FE4FE491F0E0EE0FFF1FE856FE4F259125
:104DA00034913C8B2B8BFC01E758FE4FE491ED8B4B
:104DB000DF91CF911F910F91FF90EF90DF90CF90F7
:104DC00008951D821C821B821A82D1CFAF92BF929E
:104DD000CF92DF92EF92FF920F931F93CF93DF93C7
:104DE0001092100610920F0688EE93E0A0E0B0E05B
:104DF0008093110690931206A0931306B0931406A5
:104E00002DEB31E030930E0620930D062FEF3FEF90
:104E100030931A06209319061092640710926307C4
:104E20008093650790936607A0936707B093680720
:104E30008FEC91E090936207809361078DEC90E096
:104E400090936E0780936D078CEC90E090937007C1
:104E500080936F0788EC90E09093720780937107BE
:104E600089EC90E090937407809373078AEC90E04C
:104E700090937607809375078EEC90E09093780777
:104E80008093770710927A0710927B0710927C0725
:104E900010927D0782E0809361068093620687E628
:104EA00096E09093640680936306109266061092D3
:104EB000650681EE91E090935E0680935D0680E842
:104EC0008093670681E8809368060E943204FC01A3
:104ED000818190916106482F490F5527551F483011
:104EE00051059CF5A281B381109709F52DE536E0B7
:104EF00033832283208120935F0680936006809114
:104F00006206820F808320916306A22FB09164060F
:104F10008A2F821B8917C8F481813D91C82FD0E068
:104F2000C35EDE4F38838F5F8183F2CFD90118963D
:104F30002D913C91199721153105C1F72DE536E0EA
:104F400019963C932E931897D5CF8091A106811185
:104F500095C010926C0610926B061092700610921B
:104F60006F068FE192E090936A068093690685E36D
:104F700092E090936E0680936D068AE191E4A0E042
:104F8000B0E08093710690937206A0937306B0937D
:104F9000740610927506109276061092770610929B
:104FA00078060E94DB010091710610917206209133
:104FB000730630917406601B710B820B930B609328
:104FC0007506709376068093770690937806109214
:104FD0007A061092790610927C0610927B06109247
:104FE0007E0610927D061092800610927F06109227
:104FF00084061092830610928806109287062DEE82
:1050000031E0309382062093810681E192E0909313
:1050100086068093850610928A0610928906109261
:105020008C0610928B0610928E0610928D061092AE
:10503000900610928F06109294061092930610928A
:1050400098061092970630939206209391069093BB
:1050500096068093950610929A06109299061092E1
:105060009C0610929B0610929E0610929D0610922E
:10507000A00610929F0681E08093A10689E696E043
:105080009093AA068093A9064AE050E064E070E09D
:1050900088E89AE00E94892640E150E065E070E0EF
:1050A00082E79AE00E9489264EE050E061E070E0DD
:1050B0008CE59AE00E94892680E58093860988E540
:1050C00080938709C1E0C0938809DFEFD0938909F5
:1050D000D0938A0986E980938B09D0938C0910922A
:1050E0008D09D0938E0982E880938F091092A708CA
:1050F0001092A6081092AB081092AA088AE9A82E6E
:1051000083E0B82EB092A508A092A40890EBC92E17
:1051100093E0D92ED092A908C092A8081092AF08A7
:105120001092AE081092B1081092B0082CE3E22E53
:1051300023E0F22EF092AD08E092AC086CEA78E041
:105140008FEA96E00E9481101092B5081092B40880
:10515000109137031092B7081092B8081092B9084E
:105160001093BA081092BB088091BC08807F80938E
:10517000BC088091BD08807F8093BD08EEEBF8E00D
:1051800083E8DF011D928A95E9F710924109109298
:1051900042091092430910924409E5E7F9E080E1E1
:1051A000DF011D928A95E9F7C09385098AE094E0B2
:1051B0009093A5088093A40880E394E09093A908B5
:1051C0008093A8088EE394E09093AD088093AC0898
:1051D0008AE494E09093B3088093B2081092010897
:1051E000109200081092050810920408B092FF0770
:1051F000A092FE07D0920308C092020810920908FC
:105200001092080810920B0810920A08F0920708F2
:10521000E092060866E078E08FEA96E00E9481104E
:1052200010920F0810920E0881E697E090931108F3
:10523000809310081092120810921308109214080C
:10524000109315081092160880911708807F80939C
:105250001708109299081092980810929A08C09313
:105260009B0810929C0810929D0810929E08D09363
:105270009F0882E19AE7A0E0B0E08093A0089093B5
:10528000A108A093A208B093A3088FEE92E0909398
:10529000FF078093FE0785E193E0909303088093D6
:1052A000020883E293E090930708809306088FE258
:1052B00093E090930D0880930C0807E517E0109297
:1052C000590783E080935A0710925B0710925C079E
:1052D00086E594E0909358078093570710925E07F5
:1052E00010925D071092600710925F0710924007BE
:1052F00010923F07109242071092410733E4C32EE9
:1053000032E0D32ED0923E07C0923D076DE377E0A6
:105310008BEA96E00E9481104BE4E42E42E0F42EEA
:10532000F0923E07E0923D07109344070093430735
:1053300082E190E0909346078093450710924807DA
:105340001092470710924A071092490710924C0793
:1053500010924B0710924E0710924D0710924F0774
:10536000D093560710925007C093530710925107DD
:10537000C093540710925207C09355071092260706
:10538000109225071092280710922707D092240721
:10539000C092230763E277E08BEA96E00E948110D7
:1053A000F0922407E092230710932A07009329071D
:1053B00083E190E090932C0780932B0710922E07A7
:1053C00010922D071092300710922F07109232077B
:1053D000109231071092340710923307C0933507AB
:1053E000D0933C0710923607C093390710923707C5
:1053F000C0933A0710923807C0933B0742E060E041
:1054000083EB96E00E945F2643E061E081EC96E04A
:105410000E945F2644E062E08FEC96E00E945F26E7
:1054200045E063E08DED96E00E945F2646E064E093
:105430008BEE96E00E945F2647E065E089EF96E0FC
:105440000E945F2648E066E087E097E00E945F26C2
:1054500049E067E085E197E0DF91CF911F910F91DF
:10546000FF90EF90DF90CF90BF90AF900C945F26AD
:10547000CF93DF9300D000D0CDB7DEB7789484B55A
:10548000826084BD84B5816084BD85B5826085BD40
:1054900085B5816085BD80916E00816080936E00CE
:1054A00010928100809181008260809381008091C0
:1054B0008100816080938100809180008160809371
:1054C0008000809191008260809391008091910092
:1054D0008160809391008091900081608093900022
:1054E0008091C10084608093C1008091C10082607E
:1054F0008093C1008091C10081608093C100809140
:10550000C30081608093C3008091C000826080935B
:10551000C0008091C20081608093C20080917A00B7
:10552000846080937A0080917A00826080937A0010
:1055300080917A00816080937A0080917A008068FF
:1055400080937A001092D9051092D8051092D70551
:105550008091D70081608093D70080EA8093D80043
:1055600089B5806189BD89B5826089BD09B400FEB5
:10557000FDCF61E070E080E090E00E940002809149
:10558000D8008F7C80618093D8008091E000807F7C
:105590008093E0008091E1008E7E8093E1008DE0B9
:1055A0008093E200559A209A5D98289856E8E52E57
:1055B00059E0F52E670110E000E0C8010E94CF2EEF
:1055C000D6018D936D010F5F1F4F063D1105A9F7A1
:1055D00080918609803521F4809187098835E1F131
:1055E00080E58093860988E58093870981E0809330
:1055F00088098FEF8093890980938A0986E98093CF
:105600008B0923E037E08FEFF70194E1128693874F
:105610003487858786878787808B118A38969F5F36
:105620009C31A1F72150B0E4EB0EF11C2111ECCF1D
:1056300086E0EAE6F1E0A0E5BAE001900D928A95F5
:10564000E1F786E0E0E7F1E0A6E5BAE001900D922F
:105650008A95E1F70E94CA168091540A8A3049F46B
:1056600080915A0A8B3029F484E180935A0A0E946F
:10567000CA1681E08093880989E190E0A0E0B0E05B
:1056800080930F0190931001A0931101B093120128
:1056900088E89AE00E94E10D82E79AE00E94E10D1D
:1056A0008CE59AE00E94E10D6091640A603829F16E
:1056B0002091650A3091660A6150C9F070E08FEF61
:1056C0009FE70E94402FF9014091600A5091610AC2
:1056D000CF01821B930B8417950760F44081469F8E
:1056E000C001479F900D112490833196EDCF70E05B
:1056F00060E0E9CF80E88093640A20E530E0A9010A
:1057000070E060E08CE59AE00E94AB0C8CE59AE0DA
:105710000E940C0D6CE271E080E090E00E940002BB
:1057200020E030E0A90170E060E08CE59AE00E94A2
:10573000AB0C8CE59AE00E940C0D66E970E080E00D
:1057400090E00E94000225E035E045E050E070E086
:1057500060E08CE59AE00E94AB0C8CE59AE00E9438
:105760000C0D83E191E09093B5088093B408909379
:105770000F0880930E080091A9061091AA06F8015F
:1057800086819781892B91F582819381892B71F58F
:10579000E090DA05F090DB05E114F10469F4E090A3
:1057A000B106F090B206E114F10421F0F8E0EF1A2E
:1057B000F10811F40E944525680128E1C20ED11CB0
:1057C000B601C8010E94D30BB601C70104960E941E
:1057D000BD0B680138E2C30ED11CB601C8010496A6
:1057E0000E94BD0BB601C7010E94D30BE090F805E3
:1057F000F090F905E114F10461F0D701ED91FC910D
:10580000008CF18DE02DC7010995F701E280F3804E
:10581000F1CFE090AF06F090B006E114F10461F032
:10582000D701ED91FC910480F581E02DC701099528
:10583000F701E280F380F1CFE090F405F090F505F8
:10584000E114F10461F0D701ED91FC910480F58140
:10585000E02DC7010995F701E280F380F1CFE090D8
:10586000F005F090F105E114F10461F0D701ED913C
:10587000FC910480F581E02DC7010995F701E280D4
:10588000F380F1CFE090EC05F090ED05E114F10428
:1058900061F0D701ED91FC910480F581E02DC70105
:1058A0000995F701E280F380F1CFE090E805F090F0
:1058B000E905E114F10461F0D701ED91FC91048058
:1058C000F581E02DC7010995F701E280F380F1CF62
:1058D000E090E405F090E505E114F10461F0D701F2
:1058E000ED91FC910480F581E02DC7010995F70148
:1058F000E280F380F1CFE090E005F090E105E11463
:10590000F10461F0D701ED91FC910480F581E02D67
:10591000C7010995F701E280F380F1CFE090DC0543
:10592000F090DD05E114F10461F0D701ED91FC91F7
:105930000480F581E02DC7010995F701E280F3802D
:10594000F1CFE090AB06F090AC06E114F10461F009
:10595000D701ED91FC910480F581E02DC7010995F7
:10596000F701E280F380F1CF0E94DB01D8011896A5
:10597000CD90DD90ED90FC901B976C197D098E0900
:105980009F09F801648775878687978703EB16E080
:10599000D801ED91FC910480F581E02DC8010995B5
:1059A000025F1F4FB7E003321B0791F740E0E42E80
:1059B00040E0F42EC090A906D090AA060091F80508
:1059C0001091F9050115110561F0D801ED91FC91D7
:1059D000048CF58DE02DC8010995F8010281138131
:1059E000F1CF0091AB061091AC060115110561F0E5
:1059F000D801ED91FC910680F781E02DC801099551
:105A0000F80102811381F1CF0091AF061091B00629
:105A10000115110561F0D801ED91FC910680F78127
:105A2000E02DC8010995F80102811381F1CF0091A1
:105A3000F4051091F5050115110561F0D801ED91FE
:105A4000FC910084F185E02DC8010995F8010281DF
:105A50001381F1CF0091F0051091F10501151105A9
:105A600061F0D801ED91FC910084F185E02DC80131
:105A70000995F80102811381F1CF0091EC05109195
:105A8000ED050115110561F0D801ED91FC9100843F
:105A9000F185E02DC8010995F80102811381F1CF4C
:105AA0000091E8051091E9050115110561F0D80193
:105AB000ED91FC910084F185E02DC8010995F80174
:105AC00002811381F1CF0091E4051091E5050115E4
:105AD000110561F0D801ED91FC910084F185E02D74
