:100000000C94DB000C940C1C0C94E51B0C94BE1B94
:100010000C94971B0C9403010C9403010C94701B1B
:100020000C9403010C9403010C94331C0C94B11C2C
:100030000C9403010C9403010C9403010C94030130
:100040000C9403010C9403010C9403010C94030120
:100050000C9403010C9403010C9403010C94261BD3
:100060000C9403010C9403010C9403010C94030100
:100070000C9403010C9403010C9403010C940301F0
:100080000C9403010C9403010C9403010C940301E0
:100090000C9403010C9403010C9403010C940301D0
:1000A0000C9403010C9403010C9403010000000064
:1000B0002300260029002C002F000706050401005C
:1000C000080A0B0C0D09080B0002020200000904CB
:1000D00000000102020000052400100105240101B6
:1000E000010424020605240600010705810310000F
:1000F0004009040100020A00000007050202400056
:1001000000070583024000000403090412010002F5
:10011000EF020140412337800001010203014172D7
:100120006475696E6F204C4C430041726475696E52
:100130006F204D6963726F000000000024002700EB
:100140002A002D0030000000000200090F0000030B
:100150000401000C0000000000000000000000008E
:100160000000000000040802011040804010204000
:10017000804080080204018040201002011080109D
:100180002040402000000000250028002B002E0009
:1001900031000404040404030405020202020403FF
:1001A0000202020206060606060604040202020411
:1001B00004007120972711241FBECFEFDAE0DEBFC5
:1001C000CDBF12E0A0E0B1E0EEE4F3E502C005909F
:1001D0000D92A23FB107D9F729E0A2EFB2E001C02A
:1001E0001D92A132B207E1F710E0CAEDD0E004C0E1
:1001F0002197FE010E945A28C93DD107C9F70E94E4
:100200001C230C949A290C940000CF93DF931F9227
:10021000CDB7DEB76983DC01ED91FC910280F381FB
:10022000E02D41E050E0BE016F5F7F4F09950F90D8
:10023000DF91CF91089581508F3008F047C0E82FAB
:10024000F0E0EB5DFE4F0C945A2842014601340168
:100250003A013E0166016601660149014F01530101
:1002600057015D0166016101809180008F77809365
:1002700080000895809180008F7DF9CF809180006B
:10028000877FF5CF84B58F7784BD089584B58F7D42
:10029000FBCF809190008F7780939000089580919C
:1002A00090008F7DF9CF80919000877FF5CF80916E
:1002B000C0008F778093C00008958091C0008F7D2B
:1002C000F9CF8091C200877F8093C20008951F9369
:1002D000CF93DF93282F30E0F901EA5BFE4F849142
:1002E000F901EB59FE4FD491F901EE56FE4FC4913E
:1002F000CC23A9F0162F81110E941B01EC2FF0E0F6
:10030000EE0FFF1FEC57FE4FA591B4918FB7F894F5
:10031000EC91111108C0D095DE23DC938FBFDF91E3
:10032000CF911F910895DE2BF8CFCF93DF9390E00C
:10033000FC01EB59FE4F24918E569E4FFC01849197
:100340008823C9F090E0880F991FFC01E85CFE4FFC
:10035000A591B491FC01EC57FE4FC591D491611168
:100360000DC09FB7F8948C91209582238C9388813F
:10037000282328839FBFDF91CF910895623051F4E5
:100380009FB7F8943C91822F809583238C93E881CA
:100390002E2BEFCF8FB7F894EC912E2B2C938FBF91
:1003A000EACF3FB7F8948091430590914405A0911E
:1003B0004505B091460526B5A89B05C02F3F19F00D
:1003C0000196A11DB11D3FBFBA2FA92F982F8827D5
:1003D000BC01CD01620F711D811D911D42E0660FB0
:1003E000771F881F991F4A95D1F708958F929F9282
:1003F000AF92BF92CF92DF92EF92FF924B015C01DE
:100400000E94D1016B017C010E94D1016C197D0910
:100410008E099F09683E734081059105A8F321E08C
:10042000821A9108A108B10888EEC80E83E0D81E90
:10043000E11CF11C81149104A104B10429F7FF907F
:10044000EF90DF90CF90BF90AF909F908F900895E6
:100450002FB7F89460913F05709140058091410558
:10046000909142052FBF089508958093E9008091EF
:10047000F200882319F08AE38093E80008958091C0
:100480009A058F5F0C94350283E00C9435024091FD
:100490000C0550910D0520910A0530910B0542176E
:1004A0005307B4F49091E8009570E1F39091E8005F
:1004B00092FD19C08093F10080910C0590910D057B
:1004C00001968F739927892B19F48EEF8093E8009A
:1004D00080910C0590910D05019690930D058093E8
:1004E0000C0581E0089580E00895DF92EF92FF927D
:1004F0000F931F93CF93DF93D82E8A01EB017B01DB
:10050000E40EF51ECE15DF0559F0D7FE12C0FE0130
:1005100084910E94470221968111F4CF0FEF1FEFC3
:10052000C801DF91CF911F910F91FF90EF90DF9065
:1005300008958881EECF2FB7F89487708093E900F3
:100540009091E800892F807295FF04C09091F2008D
:1005500080E4891B2FBF089583E00E949B0290E0F6
:1005600008957F928F929F92AF92BF92CF92DF9227
:10057000EF92FF920F931F93CF93DF93C82E8B01BF
:100580007A0180911305811110C08FEF9FEFDF91E9
:10059000CF911F910F91FF90EF90DF90CF90BF9080
:1005A000AF909F908F907F9008958091110580FF6C
:1005B00005C08091E00082608093E000CE2DDF2DA9
:1005C000D12C8AEFB82E8C2D8770982E8C2D8072AE
:1005D000882E8C2D8074782E9AE3A92E209719F4FA
:1005E000DD2009F452C08C2D0E949B0281110AC0AB
:1005F000BA94BB2051F261E070E080E090E00E948C
:10060000F601ECCF8C171D0611F00CF08C2F9FB764
:10061000F8949092E9002091E80025FD02C09FBF68
:10062000DDCF282F30E0C21BD30B882029F081506A
:10063000A0F01092F100FBCFF801C7FC0AC0815076
:1006400050F041914093F100FACF44914093F10072
:1006500031968150D0F7020F131FDD2021F0A092B8
:10066000E800D12CDCCF8091E80085FD07C0A09286
:10067000E800DD24D394209791F2F3CF209779F608
:10068000772069F2A092E800CACF5D9A84E6809351
:100690001005C7017CCFCF93DF93EC0180911C0143
:1006A000882331F083E00E94B1021816190634F055
:1006B00081E090E09B838A8380E090E0DF91CF919E
:1006C000089590911305992319F13FB7F894877015
:1006D0008093E9008091F20090E0481759070CF4EC
:1006E000CA01282FFB0154E6215038F0289A509374
:1006F0000F054091F1004193F7CF009739F0209119
:10070000F200211103C02BE62093E8003FBF0895BB
:100710008FEF9FEF08950F931F93CF93DF931F9257
:10072000CDB7DEB78C01FC018485958597FF0FC09E
:1007300041E050E0BE016F5F7F4F82E00E946103A5
:10074000019771F4898190E0F80195878487F80119
:10075000848595850F90DF91CF911F910F9108951A
:100760008FEF9FEFF1CFCF93DF931F92CDB7DEB71F
:10077000FC018485958597FD08C02FEF3FEF3587F5
:1007800024870F90DF91CF91089541E050E0BE01A2
:100790006F5F7F4F82E00E946103019719F48981A6
:1007A00090E0EFCF8FEF9FEFECCF9FB7F89487707B
:1007B0008093E9008091F2009FBF0895FC01848539
:1007C000958597FD06C082E00E94D50390E00196D2
:1007D000089582E00E94D50390E00895615030F0C2
:1007E0002091F100FC0120830196F8CF289A84E63D
:1007F00080930F0508958091020581110DC082E05C
:100800008093FE0484E08093FF041092010510920F
:10081000000581E0809302058EEF94E008950F9328
:100820001F93CF93DF931F92CDB7DEB782E089830A
:1008300042E450E066EC70E080E80E9475020E949D
:10084000FB03DC0112960D911C910115110589F035
:10085000D801ED91FC910280F381E02DBE016F5F24
:100860007F4FC801099597FD04C0F80100851185E7
:10087000ECCF89810F90DF91CF911F910F91089557
:1008800090E080E0089580E008950F931F93CF9348
:10089000DF93CDB7DEB7C456D1090FB6F894DEBFEB
:1008A0000FBECDBFFC01DB019C919E5F9C939E011E
:1008B000295F3F4F8AE5D9011D928A95E9F788E0C3
:1008C00089838BE08A8322E02C8391E09D839E8341
:1008D00039E0398764E06A879E879F873A8B44E2D4
:1008E0004B8B9C8BA0E0B1E0BE8BAD8B09E010E0A0
:1008F000188F0F8B998F3B8F6C8F2F8F98A353E09E
:1009000059A387E08CA34DA39EA3B8A7AFA3A1E4EE
:10091000B0E0BAA7A9A786E08BA74CA72DA79EA7F2
:100920009FA789AB4AAB2BAB2CAB2DAB3FAB48AFF2
:1009300059AF9AAF5BAF9CAF2DAF9EAF21963FAF43
:10094000219722964FAF229723965FAF2397249645
:100950002FAF249725966FAF259726969FAF2697A2
:1009600027969FAF279728969FAF28972A963FAF45
:100970002A9745E02B964FAF2B972D962FAF2D97AB
:1009800060E470E02F967FAF6EAF2F9763964FAF06
:10099000639785E264968FAF649765969FAF65977E
:1009A00066969FAF669767969FAF679768963FAFCB
:1009B000689769964FAF69976B962FAF6B976D9657
:1009C0007FAF6EAF6D97A1964FAFA197A2968FAFF5
:1009D000A297A3969FAFA397A4969FAFA497A5961F
:1009E0005FAFA59792819B839B879F5F9A8F9D8F17
:1009F00083812C968FAF2C978F5F80686A968FAF1C
:100A00006A9744E650E0BE016F5F7F4F80E00E942E
:100A10007502CC59DF4F0FB6F894DEBF0FBECDBFC5
:100A2000DF91CF911F910F9108950F931F93CF9353
:100A3000DF93EC018B018E819F81009711F00E9462
:100A40001505E881F981008CF18DE02DB801CE010A
:100A5000DF91CF911F910F910994CF92DF92EF9286
:100A6000FF92CF93DF93EC016A017B018E819F811E
:100A7000009711F00E942D05E881F9810688F78919
:100A8000E02DB701A601CE01DF91CF91FF90EF904D
:100A9000DF90CF9009940F931F93CF93DF9300D0F3
:100AA00000D01F92CDB7DEB78C0129833A834B83E8
:100AB0005C836D83DC0116968D919C91009711F0FB
:100AC0000E944B05D801ED91FC910488F589E02D39
:100AD00029813A814B815C816D81C8010F900F9013
:100AE0000F900F900F90DF91CF911F910F9109946C
:100AF000CF92DF92EF92FF92CF93DF93EC016A01E6
:100B00007B018E819F81009711F00E947805E8811A
:100B1000F9810288F389E02DB701A601CE01DF91AA
:100B2000CF91FF90EF90DF90CF900994FC01A281CC
:100B3000B381109749F0ED91FC9111970684F785E8
:100B4000E02DAC01CD0109940895CF93DF93DB0133
:100B50001496ED91FC911597309701F12481358120
:100B600012964D915C91139721153105D1F0E90151
:100B70007B836A8353834283B583A4831396FC9358
:100B8000EE93129715963C932E93149741155105A9
:100B900061F0DA011596FC93EE931497DF91CF91F3
:100BA0000895EC0179836883E5CFEC01FB83EA8348
:100BB000F5CFDC015696ED91FC91309711F0CB0109
:100BC00009940895DC015496ED91FC91309719F049
:100BD000CB01BA01099408950F931F93CF93DF932C
:100BE000CDB7DEB72A970FB6F894DEBF0FBECDBFE4
:100BF0002E833F83488759876A87DC015296ED919F
:100C0000FC91309771F585E0FE013696DE01119674
:100C100001900D928A95E1F7009116051091170544
:100C20000115110531F1D801ED91FC910284F38594
:100C3000E02D29813A814B815C816D81C801099544
:100C4000882311F1B80186E195E02A960FB6F89451
:100C5000DEBF0FBECDBFDF91CF911F910F910C94DE
:100C6000A5054E815F81688579858A8509958823E8
:100C700051F22A960FB6F894DEBF0FBECDBFDF91BA
:100C8000CF911F910F910895F80102811381C8CF70
:100C9000EF92FF920F931F93CF93DF93D42FC52F23
:100CA000162F072FDC015096ED91FC913097C1F47F
:100CB0008D2F807F803B09F04AC0C93781F5C091F4
:100CC0002605D09127052097C9F0E881F981068093
:100CD000F781E02DCE0109950A80DB81C02DF3CF8D
:100CE000642F752F812F902F0995882309F3DF91A9
:100CF000CF911F910F91FF90EF900895C0911E0525
:100D0000D0911F05209799F3E881F9810680F7813A
:100D1000E02DCE0109950A80DB81C02DF3CFE09054
:100D20002605F0902705CB3709F091C0C0912E051C
:100D3000D0912F052097D9F2E881F9810680F781BB
:100D4000E02DCE0109950A80DB81C02DF3CF813BD8
:100D500060F5803949F0E0902A05F0902B05803A43
:100D600009F455C0803819F6E0902E05F0902F0553
:100D7000E114F10409F4BBCFD701ED91FC91028499
:100D8000F385E02D4D2F5C2F612F702FC701099542
:100D90008823B1F1B7018EE295E0DF91CF911F91E9
:100DA0000F91FF90EF900C94A505803D09F470C061
:100DB000803E09F492C0803C09F099CFE090220572
:100DC000F0902305E114F10409F491CFD701ED91DE
:100DD000FC910284F385E02D4D2F5C2F612F702F45
:100DE000C7010995882309F44FC0B70182E295E055
:100DF000DF91CF911F910F91FF90EF900C94A5057B
:100E0000F701E280F380B4CFF701E280F380E114D0
:100E1000F10409F46CCFD701ED91FC910284F385C4
:100E2000E02D4D2F5C2F612F702FC701099588236E
:100E300059F3B7018AE295E0DF91CF911F910F91AD
:100E4000FF90EF900C94A505F701E280F380E11488
:100E5000F10409F44CCFD701ED91FC910284F385A4
:100E6000E02D4D2F5C2F612F702FC701099588232E
:100E700059F3B70186E295E0DF91CF911F910F9171
:100E8000FF90EF900C94A505F701E280F3809ACFD4
:100E9000E0901E05F0901F05E114F10409F427CF3E
:100EA000D701ED91FC910284F385E02D4D2F5C2F4D
:100EB000612F702FC7010995882359F0B7018EE182
:100EC00095E0DF91CF911F910F91FF90EF900C94DF
:100ED000A505F701E280F380DFCFE0901A05F090DE
:100EE0001B05E114F10409F402CFD701ED91FC9147
:100EF0000284F385E02D4D2F5C2F612F702FC701E9
:100F00000995882359F0B7018AE195E0DF91CF91E7
:100F10001F910F91FF90EF900C94A505F701E280CF
:100F2000F380DFCFDC0118968D919C91009739F00A
:100F3000DC01ED91FC910284F385E02D0994089584
:100F4000DC0118968D919C91009739F0DC01ED91B0
:100F5000FC910084F185E02D09940895CF93DF93EF
:100F6000CDB7DEB72A970FB6F894DEBF0FBECDBF60
:100F70002E833F83488759876A8725E0FE0136968E
:100F8000DE01119601900D922A95E1F7DC01189689
:100F90008D919C910097A1F0DC01ED91FC91068070
:100FA000F781E02D29813A814B815C816D812A9600
:100FB0000FB6F894DEBF0FBECDBFDF91CF9109947D
:100FC0002A960FB6F894DEBF0FBECDBFDF91CF914A
:100FD0000895DC0118968D919C91009739F0DC0101
:100FE000ED91FC910480F581E02D09940895DC01D8
:100FF0001A968D919C91009739F0DC01ED91FC914E
:101000000084F185E02D099490E080E00895049734
:101010000C94F707DC0118968D919C91009739F09C
:10102000DC01ED91FC910088F189E02D099490E0BC
:1010300080E00895E0913205F0913305309781F01A
:10104000208531858217930748F0228533858217E2
:10105000930730F00280F381E02DF0CFF0E0E0E084
:10106000CF010895EF92FF920F931F93CF93DF93D9
:10107000EC018B017A018C859D85009729F068171A
:10108000790711F00E94161F1D861C868E819F8194
:10109000009781F02A853B852E153F0559F4DC0128
:1010A000ED91FC910684F785E02DAE014C5F5F4F1A
:1010B000B801099588859985009759F0DC01ED9173
:1010C000FC910684F785E02DAE014C5F5F4FB801BF
:1010D00009958A859B850097D9F0E816F906C1F035
:1010E000DC01ED91FC910680F781E02DAE01B801A5
:1010F00009956E857F856115710551F08A859B85FF
:10110000DC01ED91FC910480F581E02DAE010995A3
:101110008A819B810097A9F09C012C5F3F4FE216CA
:10112000F30679F0DC01ED91FC91068CF78DE02D52
:10113000AE01B801DF91CF911F910F91FF90EF9019
:101140000994DF91CF911F910F91FF90EF90089537
:10115000EF92FF920F931F93CF93DF93EC018B01DC
:101160007A018C859D85009729F06817790711F021
:101170000E94161F1D870C878E819F81009781F02A
:101180002A853B852E153F0559F4DC01ED91FC9134
:101190000484F585E02DAE014C5F5F4FB8010995E1
:1011A00088859985009759F0DC01ED91FC910484C4
:1011B000F585E02DAE014C5F5F4FB80109958A853A
:1011C0009B850097D9F0E816F906C1F06E857F85FA
:1011D0006115710541F0DC01ED91FC910680F7810C
:1011E000E02DAE0109958A859B85DC01ED91FC918E
:1011F0000480F581E02DAE01B80109958A819B81BB
:101200000097A9F09C012C5F3F4FE216F30679F09E
:10121000DC01ED91FC91048CF58DE02DAE01B8015F
:10122000DF91CF911F910F91FF90EF900994DF9183
:10123000CF911F910F91FF90EF9008951F93CF933F
:10124000DF93DC011296CD91DC91209749F02C853B
:101250003D858E859F852115310531F4009739F440
:10126000DF91CF911F9108952F3F3F4F11F10196CC
:1012700001F11BE08C859D85009721F42E853F852B
:10128000232B71F3115061F3009739F0DC01ED91DC
:10129000FC910680F781E02D09958E859F8500974A
:1012A00049F3DC01ED91FC910680F781E02D099571
:1012B000E1CF0E94161FFC012281338121153105E7
:1012C00069F4FB0122853385232B11F00E94161F40
:1012D00093878287FC01738362830895C901049612
:1012E000EACFFC01228133812115310569F4FB012C
:1012F00020853185232B11F00E94161F918780874E
:10130000FC01738362830895C901EBCFCF93DF9310
:10131000EC01888599850097E1F06A817B816115F0
:101320007105B9F0DC011296ED91FC91139730979D
:1013300031F01186108613961C921E921297EA8144
:10134000FB81309721F0118610861B821A820E9441
:1013500071098A859B850097E1F06E817F81611517
:101360007105B9F0DC011296ED91FC91139730975D
:1013700031F01386128613961C921E921297EE81FC
:10138000FF81309721F0138612861F821E820E94F1
:101390005B09E885F985309751F0A281B3811097F8
:1013A00031F019961C921E92189713821282EA85C8
:1013B000FB85309751F0A281B381109731F01B96D5
:1013C0001C921E921A97138212828A819B81892B0A
:1013D00021F48E819F81892B11F00E94161FDF91CD
:1013E000CF910895CF93DF93EC018A819B81009781
:1013F00049F004960E94F2098A819B810E94860925
:101400001B821A82DF91CF91089526E531E0FC011D
:10141000318320830C94F209CF93DF93EC018A810E
:101420009B81009741F00E940C0A8A819B810E9457
:1014300086091B821A82DF91CF910895CF93DF93A3
:10144000EC018AEC91E09983888380EE91E09D83A2
:101450008C83CE0188960E94CC1FCE0148960E94B4
:10146000CC1F81E692E09983888387E792E09D8391
:101470008C83CE0104960E94050A84E691E099834C
:101480008883CE01DF91CF910C940C0A04970C94C1
:101490001E0A8F929F92AF92BF92CF92DF92EF92ED
:1014A000FF921F93CF93DF93FC0182819381681792
:1014B0007907A8F54A01AA24BB24C82DC32ED42E2F
:1014C000E52EFF241C2DD22F8085882361F0889E75
:1014D00040011124C92D8C9D600111241D2D829F76
:1014E000D0011124DB2FA685E184F2849385A91312
:1014F00022C0CB01880F991F680F791F6E0D7F1DC9
:10150000A385A60FB72FB11DCC93A485A60FB72F27
:10151000B11D1C938585680F711DFB01D083DF9180
:10152000CF911F91FF90EF90DF90CF90BF90AF9041
:101530009F908F900895660F771F660F771F6E0D2F
:101540007F1D252F332744275527882349F090E016
:10155000829F7001839FF00C929FF00C11242F2D1D
:10156000A60FB72FB11D2C93CBCFCF92DF92EF9266
:10157000FF920F931F93CF93DF93CDB7DEB72997D9
:101580000FB6F894DEBF0FBECDBF8C01DC011996FB
:101590008D919C91892B09F473C00E94D101F801AF
:1015A000C784D088E188F2886C157D058E059F057B
:1015B00020F46787708B818B928BF801C784D08869
:1015C000E188F2886C197D098E099F096C3271409F
:1015D0008105910510F3F894D80114968D919C9192
:1015E00015979A8389831996ED91FC917F01BFEF3E
:1015F000EB1AFB0A80818987F80190810388F489BE
:10160000E02DD80155968C91992309F448C090811A
:10161000982B98879081809589238F838F818C83E5
:1016200088E08B8358856F8149853B812C81898136
:101630009A81D701508347FD252F3A952083262F85
:1016400039F0441F00C000006083000000C0F2CFEA
:1016500038E04D9160830000019761F7D8015496FE
:10166000FC93EE93539749873B832C839A8389831A
:1016700078940E94D101F8016787708B818B928BDF
:1016800029960FB6F894DEBF0FBECDBFDF91CF9184
:101690001F910F91FF90EF90DF90CF900895908170
:1016A000982B98879081809589238F838F818E8353
:1016B00088E08D8358856F8149853D812E818981A0
:1016C0009A81D701508347FD252F00C000C0208399
:1016D00000C000C000C000C000C060830000262F12
:1016E0003A9541F0441F000000C000C000C000C097
:1016F00000C0E8CF38E04D9100C0608300C0019782
:1017000009F7D8015496FC93EE93539749873D838C
:101710002E83ACCFCF93DF93EC018E819F8197FD19
:101720000CC061E00E94950160E08E810E9467011B
:1017300081E08983DF91CF910895198280E0FACF0B
:101740000F93CF93DF9300D000D0CDB7DEB7829553
:10175000807F682B69834A832B830C8380919A0551
:1017600044E050E0BE016F5F7F4F8F5F0E94B10287
:101770000F900F900F900F90DF91CF910F910895E0
:101780000F93FC01862F02812181408164E00E9439
:10179000A00B0F9108950F93FC01842F6230710507
:1017A00099F06330710541F06130710559F400E042
:1017B00020E0408165E004C002812181408167E032
:1017C0000E94A00B0F91089500E02181408166E006
:1017D000F7CFCF93DF93811520E8920709F44DC02E
:1017E0008B329105A0F5E82F823110F0EEEEE80F74
:1017F000F0E0E654FF4FE49190917B008E2F880F2C
:10180000880F80729F7D892B80937B00E770E06456
:10181000E0937C0080917A00806480937A008091CC
:101820007A0086FDFCCF80917800909179009C0130
:1018300043E0220F331F4A95E1F7880F892F881F55
:10184000990B9195822B932BDF91CF910895EC0109
:101850000E941A08009711F40E94161FDC011896C6
:101860002D913C911997BE01621B730BED91FC9178
:101870000488F589E02D0995DACF90E080E0D7CF94
:101880008F929F92AF92BF92EF92FF920F931F930E
:10189000CF93DF93CDB7DEB764970FB6F894DEBF72
:1018A0000FBECDBF7C01633009F4D2C0B0F461300B
:1018B000D1F1623009F46FC064960FB6F894DEBFC0
:1018C0000FBECDBFDF91CF911F910F91FF90EF9091
:1018D000BF90AF909F908F900895643009F45BC0E3
:1018E000653051F7FC0183889488A588B688868185
:1018F0009781892B61F0C70104960E941E09B501EA
:10190000A401D70116968D919C910E942D05F70197
:1019100080899189009781F2DC01ED91FC9104802E
:10192000F581E02D24C0DC0153968D909D90AD9003
:10193000BC90569716968D919C91892B59F0C701B2
:1019400004960E941E09B501A401F70186819781C2
:101950000E947805D70150968D919C91009709F4CB
:10196000ABCFDC01ED91FC910190F081E02DA50160
:101970009401B70164960FB6F894DEBF0FBECDBFD9
:10198000DF91CF911F910F91FF90EF90BF90AF909B
:101990009F908F900994F701218D2F70F3E82F9F6E
:1019A000C0011124F701E80FF91FE656FF4F4081EF
:1019B00051818E0D9F1D4A969C878B875E874D8730
:1019C0008F85807F822B8F8785E0FE013B96DE012D
:1019D000509601900D928A95E1F785E0FE01709690
:1019E000DE01169601900D928A95E1F785E0FE01E1
:1019F0003696DE01119601900D928A95E1F7D70196
:101A000016968D919C91892B71F0C70104960E94C6
:101A10001E0929813A814B815C816D81F7018681A4
:101A200097810E944B05D70150968D919C9100970C
:101A300009F442CFDC01ED91FC910280F381E02DAD
:101A40000E811F81288539854A85B701099534CFD4
:101A5000FC010789108D86819781009719F0B801E4
:101A60000E941505D70150968D919C91009709F41D
:101A700023CFDC01ED91FC910680F781E02DA801D8
:101A8000B70164960FB6F894DEBF0FBECDBFDF91ED
:101A9000CF911F910F91FF90EF90BF90AF909F90CB
:101AA0008F900994049608950296089505960895D6
:101AB0000296089503960895029608950C943F02A5
:101AC0000F93CF93DF93EC01462F872F00E020E0A8
:101AD0006FE00E94A00BCF51DF4F8881882329F04F
:101AE000DF91CF910F910C943F02DF91CF910F9135
:101AF00008950F93CF93DF93EC01252F872F062FA7
:101B000063E0423F31F000E062E0443F10F020E04B
:101B100065E00E94A00BCF51DF4F8881882329F018
:101B2000DF91CF910F910C943F02DF91CF910F91F4
:101B300008950F93CF93DF93EC01252F872FE42F88
:101B4000F0E094E0F595E7959A95E1F7062F6E2F72
:101B50000E94A00BCF51DF4F8881882329F0DF91AD
:101B6000CF910F910C943F02DF91CF910F91089587
:101B700080FF0DC0492F4F70582F5695792F7295C1
:101B80007F70406B6F7783EA96E00C94990D08950F
:101B9000E82FF0E088E0489F90011124D901AE0FB2
:101BA000BF1F43E0AA0FBB1F4A95E1F7AB57B84FE1
:101BB0001B965C911B971C964C91442321F041315C
:101BC00008F040E14150852F880F8160942F9F706D
:101BD000E20FF31F23E0EE0FFF1F2A95E1F7EB570B
:101BE000F84F2285223069F45F77662339F0406927
:101BF0006FE770E083EA96E00C94990D406860E02E
:101C0000F8CF0C94B80D089508958F929F92AF92DB
:101C1000BF92DF92EF92FF920F931F93CF93DF93C8
:101C2000EC01EE81FF81D4808D8D8D1531F081E046
:101C3000FE01ED0DF11D808FDD8E888599850E9456
:101C4000E90B2C853D85280F391FC901049673E0E7
:101C5000969587957A95E1F7281B390B3D872C8758
:101C6000EA85FB85309709F009954E855F859A01D5
:101C700063E0220F331F6A95E1F724604115510597
:101C800051F0B901675071094F3F5F4108F0A0C0A2
:101C90008617970730F0295F3F4F2817390708F05C
:101CA0008BC023E0969587952A95E1F79F878E87CD
:101CB000EA890E2F10E026E0E29FF0011124E153A3
:101CC000F74F20813181490142E0840E911C5FEF82
:101CD000851653E0950608F0490126E0209FF001A3
:101CE000219FF00D1124EF52F74F0190F081E02D6C
:101CF000E330F10508F032978E169F0610F0F401DC
:101D0000319694018815990528F09F018E179F0739
:101D100008F49C01B12CA12C50E040E028193909AD
:101D20004A095B09AFE7B0E00E94F6279F0150E047
:101D300040E0281939094A095B090E94D727B22EC9
:101D40007E01ED0CF11CF701808D882349F0838919
:101D5000422F481B550BCA010396079708F4108EB3
:101D6000F701808D811128C08389821729F186E0CF
:101D7000809F9001819F300D11242B57384FF9011E
:101D8000E25BFE4F8081215B3E4FF90190819923F8
:101D900021F0913108F090E191509F7028893989A4
:101DA0008F77232B11F48D0D8F77880F6B2D81602A
:101DB0000E94B80DF701B38ADF91CF911F910F9167
:101DC000FF90EF90DF90BF90AF909F908F9008951D
:101DD0008617970708F465CFEFCF08950895089503
:101DE00008950895CF93DF93FC0180819181892B21
:101DF00011F471836083A281B381EB01BD83AC8355
:101E0000109721F013967C936E93129773836283DD
:101E1000FB0113821282DF91CF910895CF93DF935C
:101E2000AC01FB01C481D581209721F0828193818F
:101E30009B838A83DA0112968D919C9113978E175A
:101E40009F0721F41396DC93CE931297828193819E
:101E5000009729F0DC011596DC93CE931497DA01F4
:101E60002D913C9111972E173F0711F48D939C9360
:101E70001582148213821282DF91CF910895CF933D
:101E8000DF93653010F00E94161FFC016483C68149
:101E9000D781209759F0E881F9810480F581E02D00
:101EA000CE0109950A80DB81C02DF3CFDF91CF9160
:101EB0000895FC0183E092E0918380833097A1F044
:101EC0008091E9059091EA05E817F90741F08281D0
:101ED0009381892B21F484819581892B29F0BF017D
:101EE00089EE95E00C940E0F0895FC018EEE91E0C2
:101EF000918380833097A1F08091E5059091E6056C
:101F0000E817F90741F082819381892B21F48481BC
:101F10009581892B29F0BF0185EE95E00C940E0F79
:101F200008952BE032E0FC01318320830C94750F7F
:101F30002BE032E0FC01318320830C94750F8F92EB
:101F40009F92AF92BF92DF92EF92FF920F931F93F7
:101F5000CF93DF93C0919D0680E4C89FE0011124D8
:101F6000CB57D84F10E000E07EE0D72EEE24EA9465
:101F7000F12C90918807901721F090918907901388
:101F80003DC020918A07D09EF001D19EF00D112412
:101F9000EA50FA4F8081837009F468C0233D08F04D
:101FA00022ED822F90E0B0E0A0E0AC0133272227A1
:101FB0008824982EA92EBA2E282939294A295B2946
:101FC000282B392B4A2B5B2BB80187E099E00E9424
:101FD000490A0F5F1F4F28960430110551F687E01C
:101FE00099E0DF91CF911F910F91FF90EF90DF90DB
:101FF000BF90AF909F908F900C94B50AE8898D8523
:10200000E89FC0011124B7010E944628F62F8E8553
:10201000E89FC0011124B7010E944628862E912C0A
:10202000B12CA12CBA2CA92C982C8824AF2A8F85EE
:10203000E89FC0011124B7010E944628A501940120
:10204000262B8A85813039F489898111BDCF20E022
:1020500030E0A901B9CFD09EF001D19EF00D11243E
:10206000EA50FA4F8081837091F7AECF2FEF3FEFA8
:102070004FEF50E0A9CFDF92EF92FF920F931F93A3
:10208000CF93DF93D0909D06811105C08091000110
:102090008D1509F440C0D0E0C0E0EE24EA94F12CA4
:1020A00020E030E0A901DC1227C040918E0780912A
:1020B0008B07489FC0011124B7010E944628E62FD4
:1020C00080918C07489FC0011124B7010E944628C7
:1020D000062F10E030E020E0322F212F102F0027B4
:1020E0002E2B80918D07489FC0011124B7010E94BB
:1020F0004628A9019801262BBE0181EF98E00E9495
:10210000490A2196C530D10559F681EF98E00E9421
:10211000B50AD0920001DF91CF911F910F91FF90EE
:10212000EF90DF900895CF93DF93DC011796CD9168
:10213000DC91C115B0E8DB0701F1CB32D10530F4F9
:1021400062E08C2FDF91CF910C949501CE010E941B
:102150001A08009711F40E94161FFC012085318592
:10216000BE01621B730B0190F081E02D0480F581AC
:10217000E02D42E0DF91CF910994DF91CF91089556
:10218000CF93DF93EC0187E192E0998388838BE31F
:1021900092E09D838C8389E492E09987888785E526
:1021A00092E09F878E878091140590911505009786
:1021B00049F42091EB053091EC052115310511F022
:1021C000C9010897C817D90721F410921505109274
:1021D00014058BE092E099878887CE0108960E94CB
:1021E000590F81E692E09983888387E792E09D8387
:1021F0008C83CE0104960E94050A84E691E09983BF
:102200008883CE01DF91CF910C940C0A25E832E04F
:10221000FC01318320832BEA32E03583248329EBD0
:1022200032E03187208725EC32E0378726870C940F
:10223000C01004970C94061108970C9406110E9781
:102240000C94061104970C94C01008970C94C010BD
:102250000E970C94C01008950895683F38F0DC0183
:10226000ED91FC91048CF58DE02D09940895242FB7
:10227000287F203F59F4403F49F06F77DC01ED9112
:10228000FC91008CF18DE02D5F7709940895CF9338
:10229000DF93CDB7DEB72A970FB6F894DEBF0FBE37
:1022A000CDBF2E833F83488759876A8725E0FE018B
:1022B0003696DE01119601900D922A95E1F7288558
:1022C0003985232BA1F0DC01ED91FC91028CF38D7B
:1022D000E02D29813A814B815C816D812A960FB670
:1022E000F894DEBF0FBECDBFDF91CF9109942A963F
:1022F0000FB6F894DEBF0FBECDBFDF91CF9108952A
:1023000020E8240F203748F46F77DC01ED91FC9131
:102310000688F789E02D5F7709940895089583ED85
:1023200092E0089508950895FF920F931F93CF931D
:10233000DF9305E817E0D0E0C0E0F801F1908F01ED
:10234000CE010E94C127F81621F06F2DCE010E9408
:10235000C9272196C635F1E0DF0779F785E897E0D0
:10236000DF91CF911F910F91FF9008950F931F93CD
:102370000E9428020091F2021091F3022091F402CF
:102380003091F502601B710B820B930B693E734019
:102390008105910560F00E9494110E9428026093CB
:1023A000F2027093F3028093F4029093F5021F916E
:1023B0000F910895CF93DF93EC010E94590FCE0146
:1023C000DF91CF910C94FC28CF93DF93EC010E9416
:1023D000050ACE01DF91CF910C94FC28CF93DF93B7
:1023E000EC010E941E0ACE01DF91CF910C94FC28D3
:1023F00004970C94EE110C94FC280C94FC280C947B
:10240000FC28CF93DF93EC010E940611CE01DF91EF
:10241000CF910C94FC2804970C94011208970C940B
:1024200001120E970C940112CF93DF93EC010E94DE
:10243000910FCE01DF91CF910C94FC28CF93DF93C5
:10244000EC010E94980FCE01DF91CF910C94FC28F3
:102450000C94FC28CF93DF93EC010E94750FCE0102
:10246000DF91CF910C94FC28CF93DF93EC010E9475
:10247000C010CE01DF91CF910C94FC280E970C94E4
:10248000341208970C94341204970C9434120E945E
:10249000852984E0E7EDF2E0DB0101900D928A9559
:1024A000E1F784E00895CF92DF92FF920F931F939C
:1024B000CF93DF93CDB7DEB72C970FB6F894DEBF7E
:1024C0000FBECDBF242F30E0E4E035952795EA9587
:1024D000E1F72115310511F080E027C0E42FEF70FE
:1024E000E250EE30C8F7F0E0E858FD4E0C945A2860
:1024F00086128612A312FD123D139D13F513F513D8
:10250000F513F513F513F513F5130514DC015C93BE
:1025100011966C93119712967C93129713962C91A7
:102520001397207F13962C9385E02C960FB6F89482
:10253000DEBF0FBECDBFDF91CF911F910F91FF90F6
:10254000DF90CF90089549875A876B877C87503FEB
:1025500099F563E8629FA001639F500D1124480F15
:10256000591FFA01E957FF4F1182108247575F4FF9
:1025700061E0FA01608363E8629FD001639FB00D60
:1025800011249C012A0F3B1F29573F4FF9016081FD
:1025900071816E377105F0F049855A856B857C85B0
:1025A000FC01E657FF4F4083518362837383DC0154
:1025B00016961C9284E0B9CF43E8429FF001439FF6
:1025C000F00D1124E80FF91FE757FF4F408141112B
:1025D000D2CF82CF1796A60FB71FA80FB91F83E0DF
:1025E000FE013A9601900D928A95E1F7F9018081FA
:1025F00091810396918380836FCFF12C573F29F00F
:10260000DC015C931396FC928FCFA3E8A29FF001AC
:10261000A39FF00D11249C012E0F3F1F6901B9E803
:10262000CB0ED11CD601EC91EE2309F455CF8901D4
:1026300009571F4FD801ED91FC91E038F10568F082
:10264000FC01E657FF4F40833196508331966083FB
:1026500031967083FC01F682ADCF2E0F3F1FD9015A
:1026600017965C933196D801ED93FC93F601108296
:10267000DC011696FC9282E058CF4D835E836F8317
:10268000788760E0503F99F573E8729FA001739FCF
:10269000500D1124480F591FFA01E957FF4F1182BD
:1026A000108247575F4F71E0FA01708373E8729FA1
:1026B000F001739FF00D11249C012E0F3F1FD901D3
:1026C000A957BF4F0D911C9111970F371105E8F0D5
:1026D0000D811E812F813885FC01E657FF4F008355
:1026E000118322833383DC0116966C9363CF43E816
:1026F000429FF001439FF00D1124E80FF91FE757A7
:10270000FF4F40814111D2CFE7CE3796E00FF11F46
:10271000E80FF91F4E815F81518340834D915C9199
:1027200011974E5F5F4F4D935C9327573F4FF901D1
:102730001082DC0116966C939ECF49835A836B837B
:102740007C8360E0503F49F573E8729FA001739F5E
:10275000500D1124480F591FFA01E957FF4F1182FC
:10276000108247575F4F71E0FA01708373E8729FE0
:10277000D001739FB00D11249C012A0F3B1F8901CA
:1027800009571F4FF801408151814E37510598F08C
:1027900009811A812B813C819FCF43E8429FF00140
:1027A000439FF00D1124E80FF91FE757FF4F4081B9
:1027B0004111DCCF91CE1796A40FB51FA80FB91FFA
:1027C00043E0FE01329601900D924A95E1F7F8013F
:1027D000408151814D5F5F4F5183408327573F4F69
:1027E000D9011C92FC01668346CFDC015C931196F3
:1027F0006C93119712967C93129713962C911397C2
:10280000207F13962C9381E090CEFC015483258188
:10281000207F258383E089CE8F929F92AF92BF92D3
:10282000CF92DF92EF92FF920F931F93CF93DF939C
:1028300000D000D0CDB7DEB78C01FC01E657FF4FCA
:102840008081882309F140815181628173811082E6
:10285000D80116968C918F70F80123E8829FE00DC5
:10286000F11D1124CF01E757FF4F2081222339F0BA
:1028700089579F4FDC011D921C9281E08083C80123
:102880000E945312811163C08091F6049091F70465
:10289000A091F804B091F9044091FA045091FB041E
:1028A0006091FC047091FD04841B950BA60BB70B83
:1028B0008F739927AA27BB27892B8A2B8B2B09F487
:1028C00057C08091FA049091FB04A091FC04B09150
:1028D000FD04880F991F880F991FFC01EA50FC4FD7
:1028E00080815181628173818090F6049090F70419
:1028F000A090F804B090F904C090FA04D090FB04C2
:10290000E090FC04F090FD048C149D04AE04BF0420
:10291000D1F0C090FA04D090FB04E090FC04F09059
:10292000FD04FFEFCF1ADF0AEF0AFF0A2FE3C222EE
:10293000DD24EE24FF24C092FA04D092FB04E0923E
:10294000FC04F092FD04482F811199CF80E00F9094
:102950000F900F900F90DF91CF911F910F91FF90EB
:10296000EF90DF90CF90BF90AF909F908F900895A1
:1029700080919A050E94D50370E060E050E08823C2
:1029800009F4B2CFC090F604D090F704E090F804B8
:10299000F090F904BFEFCB1ADB0AEB0AFB0AEFE376
:1029A000CE22DD24EE24FF248091FA049091FB04D2
:1029B000A091FC04B091FD048C159D05AE05BF05EA
:1029C00009F47FCF80919A050E94D50344E050E03E
:1029D000BE016F5F7F4F80919A050E94610304974B
:1029E0000CF46FCF8091F6049091F704A091F80455
:1029F000B091F904880F991F880F991F8A509C4F36
:102A000049815A816B817C81DC014D935D936D938B
:102A10007C931397C092F604D092F704E092F804E6
:102A2000F092F904B7CF8F929F92AF92BF92EF923C
:102A3000FF921F93CF93DF93EC017C0124E0E20E21
:102A4000F11CEE81FF81309791F084859585009788
:102A500021F486859785009751F08F3F980739F0CC
:102A6000DC01ED91FC910480F581E02D0995BE011A
:102A7000625F7F4F209711F470E060E0C7010E9411
:102A800096050E9428024B015C017E01B3E1EB0E2A
:102A9000F11C0E942802681979098A099B09643F80
:102AA00071408105910588F4C7010E940C14182F0C
:102AB000682FCE010E94400C143029F40E94280295
:102AC0004B015C01E6CF123021F7DF91CF911F91CE
:102AD000FF90EF90BF90AF909F908F9008950E97CA
:102AE0000C9413150C9413157F928F929F92AF92B2
:102AF000BF92CF92DF92EF92FF920F931F93CF93EB
:102B0000DF93EC016C0183E1C80ED11CC6010E9469
:102B10000C14982E882309F47FC07E01A4E0EA0EED
:102B2000F11CEE81FF81309711F1048515850115A7
:102B3000110509F06BC0068517852097E1F4B12CCB
:102B4000A12C1DC0A2E09A120FC0898D8F70FE01CA
:102B5000789EE00DF11D1124E656FF4F8081918192
:102B6000081B190B812C2EC0035011092BC010E03B
:102B700000E0209739F05E01BEE0AB0EB11CA0165C
:102B8000B10629F4B801C7010E9496055801812CAD
:102B900000E811E083E8782E692DCE010E94400CF8
:102BA00084E09812CFCF898D8F70FE01789EE00D62
:102BB000F11D1124E656FF4F80819181081B190BEE
:102BC0008824839417FD06C0C6010E940C14982E19
:102BD0008111E2CF882001F18E819F810097E1F081
:102BE000DC01ED91FC910484F585E02DA701B50190
:102BF000DF91CF911F910F91FF90EF90DF90CF90D9
:102C0000BF90AF909F908F907F900994B12CA12C92
:102C1000209709F0B0CFBBCFDF91CF911F910F91DB
:102C2000FF90EF90DF90CF90BF90AF909F908F90EC
:102C30007F90089508970C9474150C9474153F9226
:102C40004F925F926F927F928F929F92AF92BF92BC
:102C5000CF92DF92EF92FF920F931F93CF93DF9368
:102C6000CDB7DEB72C970FB6F894DEBF0FBECDBF41
:102C70009C878B872E833F83488759876A8785E0A7
:102C8000FE013696DE01119601900D928A95E1F7CC
:102C9000C884D984C114D10409F449C04E805F802E
:102CA0009A859F703D80A92EB12CF20180810B8501
:102CB0001C850F551F4F803F21F4F801EA0DFB1DC5
:102CC00010AAD201760138016A0C7B1CF0E36F0E6A
:102CD000711C9501220F331F2A0D3B1D200F311F40
:102CE0004D01F3015081533008F072C081E0850F2F
:102CF00080834D91F901E50FF11D4083F1E0EF1A5A
:102D0000F10871F7C40CD51CF60131972081273FDB
:102D100079F5682F70E0432D980153E0959F200DC1
:102D2000311D1124C9010E94CB0BF3011082EB85E8
:102D3000FC85EF51FF4F8081882309F462C02C96F7
:102D40000FB6F894DEBF0FBECDBFDF91CF911F91BC
:102D50000F91FF90EF90DF90CF90BF90AF909F903A
:102D60008F907F906F905F904F903F900C943F02B8
:102D70008330E9F6632D9801989F200D311D1124B1
:102D8000C9010E94C00BD1CFC40CD51CF6013197EC
:102D90008081873F49F043E0E416F10479F4632D24
:102DA000C4010E94C00B05C0432DB701C4010E949D
:102DB000CB0B0A0D1B1DF80110AAB9CF0A0D1B1D64
:102DC000F801E0AAA701B401C3010E948A29AFCF8C
:102DD0003801F3E09F9F600C711C1124632DC30127
:102DE0000E94C00BF4E0EF16F10470F2632DC401F1
:102DF0000E94C00B23E0820E911C33E0E31AF1081D
:102E0000F1CF2C960FB6F894DEBF0FBECDBFDF9189
:102E1000CF911F910F91FF90EF90DF90CF90BF90D7
:102E2000AF909F908F907F906F905F904F903F906A
:102E30000895EF92FF920F931F93CF93DF9300D0EB
:102E400000D01F92CDB7DEB78A0196EFE92E92E04F
:102E5000F92E90EFF70190839DE79183909187077A
:102E6000928383838AEF92E00E948A29F801EA50D4
:102E7000FD4F87EF84832E2DFA82E9820B5F1F4F6F
:102E8000402F1C830B836D81607F3A815C8183EAD4
:102E900096E00F900F900F900F900F90DF91CF91D1
:102EA0001F910F91FF90EF900C941F16BF92CF923D
:102EB000DF92EF92FF920F931F93CF93DF93CDB7E3
:102EC000DEB7AD970FB6F894DEBF0FBECDBF09A732
:102ED0001AA72BA73CA74DA72BA53CA5253031054C
:102EE00008F448C0E9A5FAA581818D3709F042C0F0
:102EF00092818091870798133DC08381843009F5C2
:102F000093E0998392E09A831B821C828D839E8337
:102F10008F8385E0888781E089878A8785E18B8731
:102F2000ECEDF2E0DE011C9601900D928A95E1F73E
:102F300040E250E0BE016F5F7F4F85E00E941917AD
:102F400019C0813009F060C0BB24BA942530310526
:102F500009F0B480E5E8CE2EE7E0DE2E10E03FEF8A
:102F6000B316C1F0B116B1F01F5F40E4C40ED11C1E
:102F70001530A9F7AD960FB6F894DEBF0FBECDBFE2
:102F8000DF91CF911F910F91FF90EF90DF90CF9045
:102F9000BF900895760100E019830A83F7018285C6
:102FA0008B8383858C8384858D838585982F991F5A
:102FB0009927991F9E838F778F838685982F991FD6
:102FC0009927991F98878F7789878785982F991FC9
:102FD0009927991F9A878F778B878089982F991FB8
:102FE0009927991F9C878F778D874DE050E0BE0110
:102FF0006F5F7F4F83E00E9419170F5FF8E0EF0EBD
:10300000F11C083049F6B0CF823009F058C02231A7
:10301000310508F4AFCF8481853008F0ABCF25812E
:10302000283008F0A7CF368148E0849FC0011124E2
:10303000820F911DDC0163E0AA0FBB1F6A95E1F7C7
:10304000AB57B84F1A963C931A9727811B962C932F
:103050001B9720851C962C931C97218530E8239F75
:10306000A00111242285242B1D962C931D972385C6
:1030700030E8239FA00111242485242B1E962C9335
:103080001E97258530E8239FA00111242685242B37
:103090001F962C9373E0880F991F7A95E1F7DC0156
:1030A000AB56B84F878540E8849F900111248089F2
:1030B000822B8C930E94B6110E949F0F5BCF8630AB
:1030C00081F52B30310508F455CF9481923008F00A
:1030D00051CF899FC00111248B57984FDC01A65B0B
:1030E000BE4F258140E8249F900111244681242B66
:1030F00011963C932E931296278140E8249F9001CD
:1031000011244085242B11963C932E9321851296F1
:103110002C932285815B9E4FFC0120830E94B61177
:1031200029CF8F30E9F5EE24EA942530310509F0F6
:10313000E4800FEC18E0F12CFFEFEF1611F0EF1028
:1031400026C0F982F801808191819C01220F232FF2
:10315000221F330B31952F772A838F778B838281C0
:1031600093819C01220F232F221F330B31952F7740
:103170002C838F778D8384818E8385818F8347E035
:1031800050E0BE016F5F7F4F80E10E9419170A5F18
:103190001F4FF1E0FF1609F4EDCEFF24F394CCCFDE
:1031A000873051F4848180938807858180938907D3
:1031B000868180938A077ECF8830A1F58091880729
:1031C0008983809189078A8380918A078B83809184
:1031D0008B07982F991F9927991F9C838F778D8331
:1031E00080918C07982F991F9927991F9E838F771D
:1031F0008F8380918D07982F991F9927991F988702
:103200008F77898780918E07982F991F9927991F0B
:103210009A878F778B874BE050E0BE016F5F7F4FBF
:1032200088E08CCE8C30E9F52530310509F4A2CE4A
:10323000F48031E03F1508F49DCEE580809183064F
:1032400090918406FF2021F080916506909166069A
:103250000E94E90B8C018F2D90E026E0289FF00161
:10326000299FF00D1124E11019C0E153F74F11838C
:1032700000830E94B611F982EA82C801880F892F63
:10328000881F990B91958F778B830F770C8344E080
:1032900050E0BE016F5F7F4F8CE050CEEF52F74F92
:1032A000E6CF8D3071F52C30310508F463CE848182
:1032B00040E8849F900111248581822B80938B07A5
:1032C000868190E8899F900111248781822B8093C9
:1032D0008C07808540E8849F900111248185822B92
:1032E00080938D07828590E8899F900111248385C2
:1032F000822B80938E070E94B61181E00E943B10C2
:1033000039CE893009F04BC02D35310508F432CE65
:10331000A481A53008F02ECE30E4A39FD001112463
:10332000AB57B84FAF01485A5F4F85811A968C93BF
:103330001A9786811B968C931B9787811C968C937A
:103340001C97808590E8899F900111248185822BAC
:103350001D968C931D97828590E8899F900111247A
:103360008385822B1E968C931E97848590E8899F77
:10337000900111248585822B1F968C931F9786853B
:1033800090E8899F900111248785822B50968C9319
:1033900050973B961896E417F50739F68BCE8E308A
:1033A00009F0E8CD87E797E790930108809300083C
:1033B00088E198E00FB6F894A895809360000FBE5E
:1033C00090936000FFCF4F925F926F927F928F92A7
:1033D0009F92AF92BF92CF92DF92EF92FF920F93A4
:1033E0001F93CF93DF9300D0CDB7DEB77C01D09091
:1033F0009D06DC0117960D911C910115B0E81B0785
:1034000001F10B321105F8F4F801EA5BFE4F8491EB
:10341000F801EB59FE4FC4900E561E4FF80104916F
:10342000002379F081110E941B01E02FF0E0EE0FE4
:10343000FF1FE455FF4FA591B491EC91CE2281E09E
:10344000B9F480E015C0C8010E941A08009711F471
:103450000E94161FDC0118962D913C911997B80116
:10346000621B730BED91FC910484F585E02D0995A9
:10347000F70191859295917001E0981301C000E0E9
:103480000E942802AB01BC01D70119968C911997B3
:1034900082FF20C01A968D919D910D90BC91A02D18
:1034A0002A013B01481A590A6A0A7B0A91E0809076
:1034B0000F0190901001A0901101B090120184149E
:1034C0009504A604B70408F490E0F701818590FB09
:1034D00082F98187D70119968C91182F117082FF7C
:1034E00047C0812F110F182B912F9370F701818501
:1034F0008C7F892B818783FB992790F9091741F0ED
:10350000846000FB83F981874287538764877587CE
:10351000A12E012E000CBB08C5010197029790F463
:10352000F7018681898381E0F2E0AF16B10409F0EA
:1035300080E08A8342E050E0BE016F5F7F4F8AE007
:103540000E941917D70116968C91909188078913BC
:1035500011C0123079F48D2D90E0019665E070E095
:103560000E944628682F89E996E00E943F0F35C0E7
:10357000802FB8CF90918907891308C0123031F499
:103580006FEF6D0DD110EFCF64E0EDCF2D2D30E05A
:10359000482F50E0123009F03FC0F90163E0EE0F10
:1035A000FF1F6A95E1F7E40FF51F73E0EE0FFF1FB1
:1035B0007A95E1F7EB57F84F9285913009F58189BB
:1035C0009827918B6FE7911101C060E04D2DF701B5
:1035D00086810E94C80D0E94B6110F900F90DF9156
:1035E000CF911F910F91FF90EF90DF90CF90BF9000
:1035F000AF909F908F907F906F905F904F900895C5
:10360000933011F4C901A9CF943009F4B9CF4D2DED
:103610006FE70E94C80DE1CFAA94AB28F1F6F9013B
:1036200093E0EE0FFF1F9A95E1F7E40FF51F23E0FB
:10363000EE0FFF1F2A95E1F7EB57F84F9285913077
:1036400061F2933050F64D2D60E0E3CF1F920F9260
:103650000FB60F9211242F933F938F939F93AF93A5
:10366000BF9380913F0590914005A0914105B09195
:10367000420530913E0523E0230F2D3758F5019682
:10368000A11DB11D20933E0580933F0590934005F9
:10369000A0934105B0934205809143059091440564
:1036A000A0914505B09146050196A11DB11D8093DD
:1036B000430590934405A0934505B0934605BF91FB
:1036C000AF919F918F913F912F910F900FBE0F90CF
:1036D0001F90189526E8230F0296A11DB11DD2CF89
:1036E0001F920F920FB60F9211242F933F934F9377
:1036F0005F936F937F938F939F93AF93BF93EF935A
:10370000FF93E0910D01F0910E010995FF91EF916A
:10371000BF91AF919F918F917F916F915F914F91E9
:103720003F912F910F900FBE0F901F9018951F92F1
:103730000F920FB60F9211242F933F934F935F93E5
:103740006F937F938F939F93AF93BF93EF93FF9369
:10375000E0910B01F0910C010995FF91EF91BF9160
:10376000AF919F918F917F916F915F914F913F9119
:103770002F910F900FBE0F901F9018951F920F92D0
:103780000FB60F9211242F933F934F935F936F9334
:103790007F938F939F93AF93BF93EF93FF93E091AA
:1037A0000901F0910A010995FF91EF91BF91AF9145
:1037B0009F918F917F916F915F914F913F912F9149
:1037C0000F900FBE0F901F9018951F920F920FB67B
:1037D0000F9211242F933F934F935F936F937F9397
:1037E0008F939F93AF93BF93EF93FF93E091070164
:1037F000F09108010995FF91EF91BF91AF919F91D1
:103800008F917F916F915F914F913F912F910F9089
:103810000FBE0F901F9018951F920F920FB60F9228
:1038200011242F933F934F935F936F937F938F93C5
:103830009F93AF93BF93EF93FF93E0910501F091B6
:1038400006010995FF91EF91BF91AF919F918F91E3
:103850007F916F915F914F913F912F910F900FBE8C
:103860000F901F9018951F920F920FB60F92112470
:103870002F933F934F935F936F937F938F939F9378
:10388000AF93BF93CF93EF93FF93C091E1008091EB
:10389000E100837F8093E100C3FF0FC01092E90035
:1038A00081E08093EB001092EC0082E38093ED00C6
:1038B0001092130588E08093F000C2FF1BC083E0E4
:1038C0000E94350280911005882341F080911005F7
:1038D000815080931005811101C05D9880910F0582
:1038E000882341F080910F05815080930F0581114D
:1038F00001C02898C4FF23C08091E2008E7E8160C1
:103900008093E2008091E1008F7E8093E1008091BE
:1039100011058E7E806180931105FF91EF91CF910B
:10392000BF91AF919F918F917F916F915F914F91D7
:103930003F912F910F900FBE0F901F901895C0FFD1
:10394000ECCF8091E2008E7E80618093E2008091D6
:10395000E1008E7E8093E100809111058E7E816072
:10396000DACF1F920F920FB60F921124CF92DF92EF
:10397000EF92FF920F931F932F933F934F935F9379
:103980006F937F938F939F93AF93BF93EF93FF9327
:10399000CF93DF93CDB7DEB76C97DEBFCDBF10926C
:1039A000E9008091E80083FF25C068E0CE014596DC
:1039B0000E94EE0382EF8093E8008D8987FF39C073
:1039C0009091E80090FFFCCF982F907609F034C1D9
:1039D0009E894F89588D2F89F88C911131C080387C
:1039E00061F5809112058093F1001092F1008EEF45
:1039F0008093E8006C960FB6F894DEBF0FBECDBF83
:103A0000DF91CF91FF91EF91BF91AF919F918F91F6
:103A10007F916F915F914F913F912F911F910F91E6
:103A2000FF90EF90DF90CF900F900FBE0F901F9000
:103A300018959EEF9093E800C7CF1092F100D5CF74
:103A4000913059F48111D3CF4130510581F68091E5
:103A500012058D7F80931205CACF933049F48111EE
:103A6000C6CF4130510519F6809112058260F2CF20
:103A7000953041F48091E80080FFFCCF20682093CE
:103A8000E300B5CF963009F0A9C00B8D1C8D22E064
:103A90001092E90010920D0510920C05F2122EC042
:103AA00010920B0510920A050E940F041F8299E0E4
:103AB0009983FA8291E09E8390EA98879AEF99879A
:103AC00020910C0530910D05275F3F4F3C832B83E0
:103AD0008D831092E90010920D0510920C05109341
:103AE0000B0500930A0549E050E0BE016F5F7F4F70
:103AF00080E00E9475020E940F0479CF10930B059D
:103B000000930A050E94FB03DC0112960D911C91A3
:103B10000115110509F451C1D801ED91FC91048002
:103B2000F581E02DBE016B5E7F4FC80109950097BE
:103B300009F03EC1F80100851185EACFF3E0FF12DC
:103B40000EC08F89882309F440C0823061F440E8B8
:103B50006DE08AE291E00E94E31E811148CF81E28C
:103B60008093EB0047CF813029F440E86BE08EE191
:103B700091E0F1CF833099F70E94FB03DC011296AC
:103B8000ED90FC908E010F5F1F4F6801E114F1046E
:103B900079F0D701ED91FC910680F781E02DB80115
:103BA000C7010995080F111DF701E084F184EECFDC
:103BB000D8011C92F60101900020E9F73197BF016E
:103BC0006C197D0940E0C601C6CF68E071E0FB01D9
:103BD000449150E080E80E94750209CF973009F4C3
:103BE000BECF983021F481E08093F10000CF99306E
:103BF00009F0FDCE837009F0B2CFEEE1F1E081E093
:103C000031E096E32191222371F08093E900309313
:103C1000EB00DF0111972C912093EC009093ED00C5
:103C20008F5F873079F78EE78093EA001092EA0081
:103C30008F8980931305DBCE8B8D9C8D1092E900CC
:103C400010920D0510920C0590930B0580930A05B8
:103C5000898D811192C08E899D89913A49F4813272
:103C600009F07DCF47E050E065E171E080E0B3CF3F
:103C7000913209F074CF833269F48F89988DB0E066
:103C8000A0E08093010190930201A0930301B093FF
:103C90000401ADCE803269F48091E80082FFFCCF50
:103CA00067E085E191E00E94EE038BEF8093E800EE
:103CB0009ECE823209F09BCE8F8980931C01EEEF5D
:103CC000FFE7859194918B3F9C4D51F1E0E0F8E046
:103CD0008091150190911601A0911701B0911801E2
:103CE000803B9440A105B105F1F480911C0180FD59
:103CF0001AC0EE3F8AE0F80789F587E797E79183D6
:103D000080838091600080930E0588E19BE00FB670
:103D1000F894A895809360000FBE9093600067CEE2
:103D2000EEEFFAE0D5CF808191818737974709F090
:103D30005ECEA8958091600088618093600080913C
:103D40000E0580936000EE3F2AE0F20789F0809133
:103D5000FE0A9091FF0A9183808349CE80819181F0
:103D60008737980751F29093FF0A8093FE0AC5CFD8
:103D70001092FF0A1092FE0A3ACE0E94FB03DC0169
:103D800012960D911C910115110509F4E8CED80188
:103D9000ED91FC910190F081E02DBE016B5E7F4FB3
:103DA000C8010995811123CEF80100851185EBCF5B
:103DB000181619060CF41BCED2CEF1E0FF12BECEBF
:103DC0006CE071E004CFEF92FF920F931F93CF93BB
:103DD000DF93F82E192FE62E042F81E0860F880F2F
:103DE0000E94470283E00E944702CF2DD12FEC0EA4
:103DF000FD2EF11CCE15DF05B9F007FF13C0FE0143
:103E000084910E944702182F80E00E94470281237C
:103E100021968111EFCFDF91CF911F910F91FF90EC
:103E2000EF9008958881EDCF81E0F5CF61E08DE0DE
:103E30000E94950161E08DE00E94670162E370E0FD
:103E400080E090E00E94F60160E08DE00E94670152
:103E500062E370E080E090E00E94F60161E08DE0B6
:103E60000E94670162E370E080E090E00E94F6014A
:103E700060E08DE00E94670162E573E080E090E021
:103E80000E94F601D7CF0F931F93CF93DF93EC01DE
:103E90008B018885998584179507F9F41D861C8602
:103EA0008A859B85009741F0DC01ED91FC910680AD
:103EB000F781E02DAE0109958A819B81009701F180
:103EC000DC01ED91FC91068CF78DE02DAE01B8017F
:103ED000DF91CF911F910F9109946E857F856017B7
:103EE000710771F41F861E868A859B85009741F0B5
:103EF000DC01ED91FC910680F781E02DAE01E8CF69
:103F0000DF91CF911F910F91089504970C94431F57
:103F10000F931F93CF93DF93EC01888599858417C6
:103F2000950701F58B017D876C878A859B850097B6
:103F300041F0DC01ED91FC910480F581E02DAE01B2
:103F400009958A819B810097F9F0DC01ED91FC9144
:103F5000048CF58DE02DAE01B801DF91CF911F915A
:103F60000F9109948E859F85892B71F47F876E87C9
:103F70008A859B85009741F0DC01ED91FC910480DE
:103F8000F581E02DAE01E9CFDF91CF911F910F9127
:103F9000089504970C94881FCF93DF93EC0188E970
:103FA00091E0998388838CEB91E09D838C83CE0193
:103FB0000E948609CE0104960E94050A84E691E0DB
:103FC00099838883CE01DF91CF910C940C0A0497DA
:103FD0000C94CC1F0F931F93CF93DF93EC01062F0C
:103FE000142F1B821A821D821C828EEE91E099830F
:103FF0008883BE0185EE95E00E94F20E8AE491E08E
:10400000998388830E83412F50E058874F83898599
:104010008F608F7E89871A861B861C861D86DF919E
:10402000CF911F910F910895CF92DF92EF92FF925F
:104030000F931F93CF93DF93EC016B01F42EE52ECA
:10404000198218861F86188A198A1A8A81E08E8733
:104050008B871C8692E09D8788838B01000F111F40
:10406000060F171F1D830C83C8010E9460289A87C2
:104070008987009789F1A80170E060E00E94932988
:10408000DB82CA82FE82EF828981882341F061E06F
:104090008F2D0E94950160E08F2D0E9467018F2D6A
:1040A0009E2DFC01EE56FE4FE491F0E0EE0FFF1F57
:1040B000EC57FE4F259134913C8B2B8BFC01EB5937
:1040C000FE4FE491ED8BDF91CF911F910F91FF9007
:1040D000EF90DF90CF9008951D821C821B821A8280
:1040E000D1CFCF92DF92EF92FF920F931F93CF9396
:1040F000DF9310924A051092490588EE93E0A0E004
:10410000B0E080934B0590934C05A0934D05B09380
:104110004E058AE791E090934805809347058FEF1D
:104120009FEF909354058093530582E080939B0505
:1041300080939C0581EA95E090939E0580939D0570
:104140001092A00510929F058CE891E0909398053D
:104150008093970580E88093A10581E88093A2056C
:104160000E94FB03FC01818190919B05482F490F20
:104170005527551F483051059CF5A281B3811097F2
:1041800009F527E935E033832283208120939905BF
:1041900080939A0580919C05820F808320919D05D4
:1041A000A22FB0919E058A2F821B8917C8F48181A6
:1041B0003D91C82FD0E0C35EDE4F38838F5F81838F
:1041C000F2CFD90118962D913C91199721153105FF
:1041D000C1F727E935E019963C932E931897D5CF70
:1041E0008091DB05811195C01092A6051092A5055E
:1041F0001092AA051092A9058AEC91E09093A4056B
:104200008093A30580EE91E09093A8058093A70585
:104210008AE191E4A0E0B0E08093AB059093AC0517
:10422000A093AD05B093AE051092AF051092B00506
:104230001092B1051092B2050E94D1010091AB0518
:104240001091AC052091AD053091AE05601B710B4E
:10425000820B930B6093AF057093B0058093B1050B
:104260009093B2051092B4051092B3051092B60562
:104270001092B5051092B8051092B7051092BA05C4
:104280001092B9051092BE051092BD051092C2059C
:104290001092C10528E931E03093BC052093BB059D
:1042A0008CEB91E09093C0058093BF051092C405FC
:1042B0001092C3051092C6051092C5051092C8054C
:1042C0001092C7051092CA051092C9051092CE052A
:1042D0001092CD051092D2051092D1053093CC05E5
:1042E0002093CB059093D0058093CF051092D405F1
:1042F0001092D3051092D6051092D5051092D805CC
:104300001092D7051092DA051092D90581E08093BA
:10431000DB0583EA95E09093E4058093E3054AE0AA
:1043200050E064E070E087E099E00E94142040E1F2
:1043300050E065E070E081EF98E00E9414204EE0CC
:1043400050E061E070E08BED98E00E94142080E581
:104350008093850788E580938607C1E0C09387072F
:10436000DFEFD0938807D093890786E980938A0787
:10437000D0938B0710928C07D0938D0782E880939F
:104380008E071092A6061092A5061092AA06109209
:10439000A90681E692E09093A4068093A30687E79E
:1043A00092E09093A8068093A7061092AE06109212
:1043B000AD061092B0061092AF0683E092E09093A3
:1043C000AC068093AB066BEA76E089EE95E00E943E
:1043D000F20E1092B4061092B3068091FE01109274
:1043E000B6061092B7061092B8068093B9061092DE
:1043F000BA068091BB06807F8093BB068091BC0685
:10440000807F8093BC06EDEBF6E083E8DF011D9230
:104410008A95E9F7109240071092410710924207DF
:1044200010924307E4E7F7E080E1DF011D928A95EF
:10443000E9F7C093840785E892E09093A4068093FF
:10444000A3068BEA92E09093A8068093A70689EBD7
:1044500092E09093AC068093AB0685EC92E090934B
:10446000B2068093B10609E916E010929B0685E03A
:1044700080939C0610929D0610929E0681ED92E01C
:1044800090939A06809399061092A00610929F0628
:104490001092A2061092A10610927E0610927D063E
:1044A0001092800610927F068EEEC82E81E0D82EE4
:1044B000D0927C06C0927B066BE776E085EE95E0B5
:1044C0000E94F20E96EFE92E91E0F92EF0927C0612
:1044D000E0927B06109382060093810682E190E0D1
:1044E0009093840680938306109286061092850628
:1044F000109288061092870610928A0610928906FA
:1045000010928C0610928B0610928D06D09398060E
:1045100010928E06C093930610928F06C093940655
:1045200010929006C093950610929106C09396063D
:1045300010929206C09397061092600610925F0642
:104540001092620610926106D0925E06C0925D06DD
:104550006DE576E085EE95E00E94F20EF0925E0643
:10456000E0925D06109364060093630683E190E099
:10457000909366068093650610926806109267060F
:1045800010926A061092690610926C0610926B06E1
:1045900010926E0610926D06C0936F06D0937A0645
:1045A00010927006C093750610927106C09376063D
:1045B00010927206C093770610927306C093780625
:1045C00010927406C093790642E060E08DEE95E0AB
:1045D0000E94EA1F43E061E08BEF95E00E94EA1F32
:1045E00044E062E089E096E00E94EA1F45E063E073
:1045F00087E196E00E94EA1F46E064E085E296E0EB
:104600000E94EA1F47E065E083E396E00E94EA1F0C
:1046100048E066E081E496E00E94EA1F49E067E036
:104620008FE496E0DF91CF911F910F91FF90EF9073
:10463000DF90CF900C94EA1FCF93DF93CDB7DEB716
:1046400028970FB6F894DEBF0FBECDBF789484B51F
:10465000826084BD84B5816084BD85B5826085BD7E
:1046600085B5816085BD80916E00816080936E000C
:1046700010928100809181008260809381008091FE
:1046800081008160809381008091800081608093AF
:1046900080008091910082608093910080919100D0
:1046A0008160809391008091900081608093900060
:1046B0008091C10084608093C1008091C1008260BC
:1046C0008093C1008091C10081608093C10080917E
:1046D000C30081608093C3008091C000826080939A
:1046E000C0008091C20081608093C20080917A00F6
:1046F000846080937A0080917A00826080937A004F
:1047000080917A00816080937A0080917A0080683D
:1047100080937A00109213051092120510921105E1
:104720008091D70081608093D70080EA8093D80081
:1047300089B5806189BD89B5826089BD09B400FEF3
:10474000FDCF61E070E080E090E00E94F601809192
:10475000D8008F7C80618093D8008091E000807FBA
:104760008093E0008091E1008E7E8093E1008DE0F7
:104770008093E200559A209A5D982898A5E8EA2E41
:10478000A7E0FA2E670110E000E0C8010E94C127EF
:10479000D6018D936D010F5F1F4F0635B1E01B07EA
:1047A000A1F780918507803521F4809186078835AF
:1047B000E1F180E58093850788E58093860781E0B5
:1047C000809387078FEF809388078093890786E916
:1047D00080938A0725E037E08FEFF70194E1128696
:1047E00093873487858786878787808B118A389659
:1047F0009F5F9C31A1F72150E0E4EE0EF11C2111E6
:10480000ECCF86E0EAE2F1E0AFECB8E001900D9287
:104810008A95E1F786E0E0E3F1E0A5EDB8E00190EC
:104820000D928A95E1F70E9494118091D3088A3005
:1048300049F48091D9088B3029F484E18093D90818
:104840000E94941181E08093870789E190E0A0E0C5
:10485000B0E080930F0190931001A0931101B093E9
:10486000120187E099E00E948A0B81EF98E00E9494
:104870008A0B8BED98E00E948A0B6091E308603808
:1048800029F12091E4083091E5086150C9F070E009
:104890008FEF9FE70E943228F9014091DF08509185
:1048A000E008CF01821B930B8417950760F44081C9
:1048B000469FC001479F900D112490833196EDCF04
:1048C00070E060E0E9CF80E88093E308F2E0FF2E3B
:1048D0000FEF10E0802F053508F05BC02F2D30E082
:1048E00050E040E0A901332722278F2D8095282B07
:1048F00070E060E08BED98E00E94490A8BED98E053
:104900000E94B50A6BE070E080E090E00E94F60142
:1049100001501109F3E0FF0E0F3F1007D9F625E013
:1049200035E045E050E070E060E08BED98E00E94FB
:10493000490A8BED98E00E94B50A83E191E09093DB
:10494000B4068093B3060091E3051091E405D80105
:1049500016968D919C911797892B09F058C0129645
:104960008D919C91892B09F052C0E0901405F09034
:104970001505E114F10489F5E090EB05F090EC05E4
:10498000E114F10421F0B8E0EB1AF10831F50E94CE
:10499000161F0A3A78F42F2D219530E050E040E0C0
:1049A000542F432F322F2227902F990F990F891BB5
:1049B00082509DCF902F990F900F9E5F8F5F282F71
:1049C000220F220F821B282F30E050E040E0542FAE
:1049D000432F322F2227492B8BCF6801E8E1CE0EDF
:1049E000D11CB601C8010E947109B601C701049625
:1049F0000E945B096801F8E2CF0ED11CB601C80124
:104A000004960E945B09B601C7010E947109E090FB
:104A10003205F0903305E114F10461F0D701ED9116
:104A2000FC91008CF18DE02DC7010995F701E28022
:104A3000F380F1CFE090E905F090EA05E114F1048C
:104A400061F0D701ED91FC910480F581E02DC70163
:104A50000995F701E280F380F1CFE0902E05F09008
:104A60002F05E114F10461F0D701ED91FC91048070
:104A7000F581E02DC7010995F701E280F380F1CFC0
:104A8000E0902A05F0902B05E114F10461F0D701C4
:104A9000ED91FC910480F581E02DC7010995F701A6
:104AA000E280F380F1CFE0902605F0902705E11435
:104AB000F10461F0D701ED91FC910480F581E02DC6
:104AC000C7010995F701E280F380F1CFE09022055C
:104AD000F0902305E114F10461F0D701ED91FC9110
:104AE0000480F581E02DC7010995F701E280F3808C
:104AF000F1CFE0901E05F0901F05E114F10461F084
:104B0000D701ED91FC910480F581E02DC701099555
:104B1000F701E280F380F1CFE0901A05F0901B05D9
:104B2000E114F10461F0D701ED91FC910480F5816D
:104B3000E02DC7010995F701E280F380F1CFE09005
:104B40001605F0901705E114F10461F0D701ED911D
:104B5000FC910480F581E02DC7010995F701E28001
:104B6000F380F1CFE090E505F090E605E114F10463
:104B700061F0D701ED91FC910480F581E02DC70132
:104B80000995F701E280F380F1CF0E94D101D801AD
:104B90001896CD90DD90ED90FC901B976C197D09D7
:104BA0008E099F09F80164877587868797870DEEC0
:104BB00015E0D801ED91FC910480F581E02DC8014C
:104BC0000995025F1F4FB6E00D351B0791F750E0C6
:104BD000852E50E0952EA090E305B090E405E0907E
:104BE0003205F0903305E114F10461F0D701ED9145
:104BF000FC91048CF58DE02DC7010995F701E28049
:104C0000F380F1CFE090E505F090E605E114F104C2
:104C100061F0D701ED91FC910680F781E02DC7018D
:104C20000995F701E280F380F1CFE090E905F0907B
:104C3000EA05E114F10461F0D701ED91FC910680E1
:104C4000F781E02DC7010995F701E280F380F1CFEC
:104C5000E0902E05F0902F05E114F10461F0D701EA
:104C6000ED91FC910084F185E02DC7010995F701D4
:104C7000E280F380F1CFE0902A05F0902B05E1145B
:104C8000F10461F0D701ED91FC910084F185E02DF4
:104C9000C7010995F701E280F380F1CFE090260586
:104CA000F0902705E114F10461F0D701ED91FC913A
:104CB0000084F185E02DC7010995F701E280F380BA
:104CC000F1CFE0902205F0902305E114F10461F0AA
:104CD000D701ED91FC910084F185E02DC701099584
:104CE000F701E280F380F1CFE0901E05F0901F0500
:104CF000E114F10461F0D701ED91FC910084F1859C
:104D0000E02DC7010995F701E280F380F1CFE09033
:104D10001A05F0901B05E114F10461F0D701ED9143
:104D2000FC910084F185E02DC7010995F701E2802F
:104D3000F380F1CFE0901605F0901705E114F1042F
:104D400061F0D701ED91FC910084F185E02DC70160
:104D50000995F701E280F380F1CF0E94D101D501DE
:104D60001C96CD90DD90ED90FC901F97CD82DE8259
:104D7000EF82F88618964D905D906D907C901B9711
:104D8000AB01BC014C195D096E097F09441555053D
:104D90006605770558F0D701C601840D951DA61D3F
:104DA000B71DF50184879587A687B787E090320500
:104DB000F0903305E114F10461F0D701ED91FC911D
:104DC000028CF38DE02DC7010995F701E280F38095
:104DD000F1CF4DEEE42E45E0F42ED701ED91FC919C
:104DE0000680F781E02DC7010995BEE0EB0EF11CAE
:104DF0000E151F0591F70E949F0F80E00E943B1047
:104E00000E94280240903A0550903B0560903C0576
:104E100070903D0564197509860997096F31710510
:104E20008105910508F45CC0809183069091840609
:104E30000E94E90B5C0180916506909166060E94D4
:104E4000E90B7C018091360590913705F501E81B4F
:104E5000F90BCF01F7FF03C0919581959109039755
:104E60007CF480913805909139056701C81AD90AF8
:104E7000C601D7FE03C0919581959109039784F1EE
:104E8000C501880F892F881F990B91958F7789838A
:104E90008A2D8F778A83C701880F892F881F990BE6
:104EA00091958F778B838E2D8F778C8344E050E0A4
:104EB000BE016F5F7F4F8BE00E941917B0923705DC
:104EC000A0923605F0923905E09238050E9428023A
:104ED00060933A0570933B0580933C0590933D05A4
:104EE0008114910409F477CE0E94000074CECF9310
:104EF000DF93EC010E94CC1FCE01DF91CF910C9487
:104F0000FC2804970C947727CF93DF93EC018985D5
:104F10009A850E94FC288E819F8197FD05C060E0E4
:104F2000DF91CF910C949501DF91CF910895CF93AC
:104F3000DF93CDE5D6E02E97E881F9810190F081ED
:104F4000E02DCE01099585E0CD3ED807A1F78DE58E
:104F500096E00E94910F8BE796E00E94910F83EA02
:104F600096E00E9406118BED98E00E94842781EF65
:104F700098E00E94842787E099E0DF91CF910C941C
:104F80008427F999FECF92BD81BDF89A992780B503
:104F90000895262FF999FECF1FBA92BD81BD20BD7D
:104FA0000FB6F894FA9AF99A0FBE01960895052E55
:104FB00097FB1EF400940E94EE2757FD07D00E9435
:104FC000012807FC03D04EF40C94EE275095409531
:104FD000309521953F4F4F4F5F4F089590958095A5
:104FE000709561957F4F8F4F9F4F08950E942328A2
:104FF000A59F900DB49F900DA49F800D911D11242D
:105000000895A1E21A2EAA1BBB1BFD010DC0AA1F09
:10501000BB1FEE1FFF1FA217B307E407F50720F021
:10502000A21BB30BE40BF50B661F771F881F991F9C
:105030001A9469F760957095809590959B01AC01E5
:10504000BD01CF010895A29FB001B39FC001A39FEE
:10505000700D811D1124911DB29F700D811D1124B1
:10506000911D0895AA1BBB1B51E107C0AA1FBB1FBE
:10507000A617B70710F0A61BB70B881F991F5A95E4
:10508000A9F780959095BC01CD01089597FB072E57
:1050900016F4009407D077FD09D00E94322807FC4F
:1050A00005D03EF4909581959F4F08957095619538
:1050B0007F4F0895EE0FFF1F0590F491E02D0994A6
:1050C0000F931F93CF93DF938230910510F482E00A
:1050D00090E0E0911F09F091200930E020E0B0E07D
:1050E000A0E0309799F42115310509F44AC0281B36
:1050F000390B24303105D8F58A819B816115710502
:1051000089F1FB0193838283FE0111C040815181AB
:105110000281138148175907E0F04817590799F49D
:10512000109761F012960C93129713961C93329677
:10513000CF01DF91CF911F910F91089500931F0927
:1051400010932009F4CF2115310551F04217530770
:1051500038F0A901DB019A01BD01DF01F801C1CFDF
:10516000EF01F9CF9093200980931F09CDCFFE0165
:10517000E20FF31F819391932250310939832883E1
:10518000D7CF20911D0930911E09232B41F4209186
:1051900026013091270130931E0920931D0920918B
:1051A0002401309125012115310541F42DB73EB779
:1051B0004091280150912901241B350BE0911D09D4
:1051C000F0911E09E217F307A0F42E1B3F0B2817DE
:1051D000390778F0AC014E5F5F4F2417350748F070
:1051E0004E0F5F1F50931E0940931D0981939193A9
:1051F0009FCFF0E0E0E09CCFCF93DF930097E9F002
:10520000FC01329713821282A0911F09B0912009EC
:10521000ED0130E020E01097A1F420813181820F70
:10522000931F20911D0930911E092817390709F095
:1052300061C0F0931E09E0931D09DF91CF9108959D
:10524000EA01CE17DF07E8F54A815B819E0141152F
:105250005105B1F7E901FB83EA8349915991C40FE4
:10526000D51FEC17FD0761F4808191810296840FB0
:10527000951FE90199838883828193819B838A8327
:10528000F0E0E0E012968D919C9113970097B9F5AC
:105290002D913C911197CD010296820F931F209181
:1052A0001D0930911E092817390739F6309751F535
:1052B0001092200910921F09B0931E09A0931D0996
:1052C000BCCFD383C28340815181840F951FC817FF
:1052D000D90761F44E5F5F4F88819981480F591F4C
:1052E000518340838A819B81938382832115310579
:1052F00009F0B0CFF0932009E0931F099ECFFD0184
:10530000DC01C0CF13821282D7CF81E090E0F89405
:105310000C949A29FB01DC0102C001900D924150CE
:105320005040D8F70895DC0101C06D9341505040C2
:10533000E0F7089510E0CAEDD0E004C0FE010E943D
:0E5340005A282196CB3DD107C9F7F894FFCF2C
:10534E00FFFFFFFFFF34023402340234023402192D
:10535E000000003A0100E100000000000000C180E2
:10536E00810000000000210980000000FF030A0BED
:10537E000000FF030B0B000000002C1156172C1120
:10538E002B11F10E281200000000980F1E12931020
:10539E00E31900000000050AE41193119311921114
:1053AE00000000000000000047124712471247128B
:1053BE009311931192110000000005014B03AC02F2
:1053CE004402DE03B3038B030000000043044504D4
:1053DE004004491200000000CC1F7727E907AE07F2
:1053EE00A0079207A80832080A08E907AE07A00727
:1053FE009207F707881F431FFCFF0000E71F812756
:10540E00C91F851F0708000000001E0AEE1148067E
:10541E00EC05E205D905931193119211FCFF0000E2
:10542E00460AF81193119311921100000000750FA6
:10543E002A1200000000910F1412ED0E050E00004E
:10544E00000000590FDA11000000000000000047B4
:10545E0012471200000000000000008011471137B3
:10546E00112D11931193119211ED0E471247124700
:10547E0012471247124712FCFF0000000000009373
:10548E001193119211F8FF0000000000008E1147D9
:10549E0012F2FF0000000000008F11471200000002
:1054AE000000000000471247124712471293119353
:1054BE00119211FCFF000000000000931193119255
:1054CE001100000000061101128011471137112D35
:1054DE0011931193119211040E1D16990D790D1F32
:1054EE0016600D5E0D7215FCFF000019110B129364
:1054FE001193119211F8FF00001C110E12030E1AD7
:10550E0016F2FF00001F1111128F116F150000000F
:10551E00003F0F3C3F3E004D494449005052495315
:10552E004D41204D52332E302050524F4D49435253
:02553E004F001C
:00000001FF
